:020000040000FA
:0400000080314728DC
:100008007E1480310B1D09280A2814280530200089
:10001800950001302100AC070030AD3D0B1145289B
:100028000B1C1728182845283230F0000030F10042
:1000380088310B2080318831862080312000A30050
:100048002308A5000830A3002308FA002508A40007
:100058000230A435FF3E031D2D282435B13E8C31D6
:100068002724803101302000A300250A3C28A3352D
:10007800890B3B282308A4002408FD0027009301CE
:100088000B107E100900803149281D30840088300B
:100098008500E6308600003087000030FF000A3017
:1000A80088314B20803170308400213085008030C9
:1000B800FE000030FF0088313F208031FD01DD0166
:1000C800DE01DF01E001E101E201E301E401E50114
:1000D800A0308400003085002F30FE000030FF0083
:1000E80088313F2080312030840001308500243061
:1000F800FE000030FF0088313F2080317E10200054
:100108008C31EB2C200037088039BC003C08C1003A
:100118003735BC003C08C700B61F9328942895289B
:1001280047144708031999289A28A928470A031D3C
:100138009E289F28A7280030B7000030B60000305E
:10014800B5000030B400B617B1280030B700003051
:10015800B6000030B5000030B4003B088039BC0060
:100168003C08C1063B35BC003C08C600BA1FBD2888
:10017800BE28BF28461446080319C328C428D32814
:10018800460A031DC828C928D1280030BB00003002
:10019800BA000030B9000030B800BA17DB280030C8
:1001A800BB000030BA000030B9000030B800460883
:1001B8000319DF28E028E5284708031DE428E52877
:1001C800EE280030B7000030B6000030B50000302F
:1001D800B400DC2A3408BC003C08A6003A0889317F
:1001E8009121803120002708CD002608CC004C083A
:1001F800BC00BD01BE01BF013F08C5003E08C400E8
:100208003D08C3003C08C2004D08BC00BD01BE014A
:10021800BF013F08CB003E08CA003D08C9003C08A2
:10022800C8003508BC003C08A6003908893191216E
:10023800803120002708CD002608CC004C08BC00DF
:10024800BD01BE01BF013C08C2073D08C33D3E08D1
:10025800C43D3F08C53D4D08BC00BD01BE01BF01FE
:100268003C08C8073D08C93D3E08CA3D3F08CB3D8C
:100278003608BC003C08A600380889319121803135
:1002880020002708CD002608CC004C08BC00BD0182
:10029800BE01BF013C08C2073D08C33D3E08C43D3E
:1002A8003F08C53D4D08BC00BD01BE01BF013C086B
:1002B800C8073D08C93D3E08CA3D3F08CB3D083048
:1002C800C235C30DC40DC50D890B64293508BC00A2
:1002D8003C08A60038088931912180312000270880
:1002E800CD002608CC004C08C2074D08C33D00309D
:1002F800C43DC53D3408BC003C08A6003908893116
:100308009121803120002708CD002608CC004C0818
:10031800C2074D08C33D0030C43DC53D0830C23555
:10032800C30DC40DC50D890B93293408BC003C08C6
:10033800A600380889319121803120002708CD0096
:100348002608CC004C08C2074D08C33D0030C43D08
:10035800C53D3508BC003C08A6003A088931912102
:10036800803120002708CD002608CC004C08C8079B
:100378004D08C93D0030CA3DCB3D3608BC003C089D
:10038800A600390889319121803120002708CD0045
:100398002608CC004C08C8074D08C93D0030CA3DA6
:1003A800CB3D3608BC003C08A6003A0889319121AB
:1003B800803120002708CD002608CC004C08BC005E
:1003C8004D08BD00BE01BF010830BC35BD0DBE0DD6
:1003D800BF0D890BE9293C08C8073D08C93D3E08FF
:1003E800CA3D3F08CB3D4208BC004308BD00440855
:1003F800BE004508BF001830BF36BE0CBD0CBC0C93
:10040800890B002A3C08C8073D08C93D3E08CA3D7B
:100418003F08CB3D0830C235C30DC40DC50D890B4F
:100428000F2A47084607BC00BD01BD0D3C08823EA7
:10043800CC00FF303D3DCD00382A0130C835C90D0C
:10044800CA0DCB0D890B222AC51F2B2A2C2A2D2A2F
:1004580048140130C235C30DC40DC50D890B2E2AB1
:10046800FF30CC07FF30CD3DCA1F3B2A3C2A212A4A
:10047800C601C51F402A412A5D2AFF304205BC003B
:10048800FF304305BD00FF304405BE007F30450501
:10049800BF003F083E043D043C040319542A552A72
:1004A800582AC601C60A5D2A481C5B2A5C2A5D2AAE
:1004B800552A46080319612A622A8A2A0130C80780
:1004C8000030C93D0030CA3D0030CB3D4B1C6D2A81
:1004D8006E2A8A2A4808BC004908BD004A08BE009E
:1004E8004B08BF000130C000BF37BE0CBD0CBC0CB0
:1004F800C00B782A3F08CB003E08CA003D08C90057
:100508003C08C8000130CC070030CD3D4D08803A8A
:10051800BC0080303C02031D932AFF304C02031CB0
:10052800962A972AA12A7F302000CB008030CA0063
:100538000030C9000030C800D02A20004D08803A99
:10054800BC0080303C02031DAB2A01304C0203186A
:10055800AE2AAF2ABA2A00302000CB000030CA00E9
:100568000030C9000030C800C101D02A20004C0862
:10057800BC003C08C700FF30C805FF30C9057F3004
:10058800CA050030CB05471CCA2ACB2ACC2ACA1771
:100598004736BC003C08CB004108BC003C08CB04F3
:1005A8004B08B7004A08B6004908B5004808B40027
:1005B80008000034003400340034003400340034BF
:1005C8000034003400340034003401340034013481
:1005D800003401340034013400340234003402346D
:1005E8000034023400340334003403340034043457
:1005F800003404340034053400340534003406343F
:100608000034063400340734003408340034083425
:100618000034093400340A3400340B3400340B3409
:1006280000340C3400340D3400340E3400340F34EC
:1006380000341034003411340034123400341334CC
:1006480000341434003416340034173400341834A9
:100658000034193400341A3400341C3400341D3486
:1006680000341E3400342034003421340034233460
:100678000034243400342634003427340034293438
:1006880000342B3400342C3400342E34003430340D
:1006980000343134003433340034353400343734E2
:1006A8000034393400343B3400343C3400343E34B4
:1006B8000034403400344234003445340034473484
:1006C8000034493400344B3400344D3400344F3452
:1006D800003452340034543400345634003458341E
:1006E80000345B3400345D340034603400346234E8
:1006F800003465340034673400346A3400346C34B0
:1007080000346F3400347234003474340034773475
:1007180000347A3400347D3400347F340034823439
:10072800003485340034883400348B3400348E34FB
:1007380000349134003494340034973400349A34BB
:1007480000349D340034A0340034A4340034A73479
:100758000034AA340034AD340034B1340034B43435
:100768000034B8340034BB340034BE340034C234EE
:100778000034C5340034C9340034CC340034D034A7
:100788000034D4340034D7340034DB340034DF345C
:100798000034E3340034E6340034EA340034EE3410
:1007A8000034F2340034F6340034FA340034FE34C1
:1007B800003402340134063401340A3401340E346E
:1007C800013412340134163401341A3401341F341C
:1007D800013423340134273401342C3401343034C7
:1007E800013434340134393401343D340134423471
:1007F8000134463401344B3401344F340134543419
:100808000134593401345D340134623401346734BD
:1008180001346B34013470340134753401347A3462
:1008280001347F34013484340134893401348E3402
:10083800013493340134983401349D340134A234A2
:100848000134A7340134AC340134B2340134B73440
:100858000134BC340134C1340134C7340134CC34DC
:100868000134D1340134D7340134DC340134E23476
:100878000134E7340134ED340134F2340134F8340E
:100888000134FE34013403340234093402340F34A1
:100898000234153402341A34023420340234263433
:1008A80002342C34023432340234383402343E34C4
:1008B8000234443402344A34023450340234563454
:1008C80002345C34023463340234693402346F34E1
:1008D8000234753402347C3402348234023488346D
:1008E80002348F340234953402349C340234A234F6
:1008F8000234A9340234AF340234B6340234BC347E
:100908000234C3340234CA340234D0340234D73403
:100918000234DE340234E5340234EC340234F33485
:100928000234F934023400340334073403340E3407
:100938000334153403341C340334243403342B3483
:100948000334323403343934033440340334473401
:1009580003344F340334563403345D34033465347C
:1009680003346C340334743403347B3403348334F5
:1009780003348A3403349234033499340334A1346D
:100988000334A9340334B0340334B8340334C034E2
:100998000334C8340334CF340334D7340334DF3456
:1009A8000334E7340334EF340334F7340334FF34C7
:1009B800033420003B088039BC003C08C5003B35A7
:1009C800BC003C08CC00BA1FEA2CEB2CEC2C4C14D5
:1009D8004C080319F02CF12C012D4C0A031DF52CA1
:1009E800F62CFE2C0030BB000030BA000030B900F5
:1009F8000030B800BA17BB01092D0030BB00003029
:100A0800BA000030B9000030B80037088039BC009F
:100A18003C08C5063735BC003C08CD00B61F152D6F
:100A2800162D172D4D144D0803191B2D1C2D2C2D7B
:100A38004D0A031D202D212D292D0030B70000302F
:100A4800B6000030B5000030B400B617B701342D39
:100A58000030B7000030B6000030B5000030B400F8
:100A68003708360435043404031D3B2D3C2D552D21
:100A78000030BB000030BA000030B9000030B800C8
:100A88008030BA047F30BB044508BC003C08BB0476
:100A98003B08B7003A08B6003908B5003808B40072
:100AA800902E4C08031D592D5A2D632D0030B70088
:100AB8000030B6000030B5000030B400902E4C086D
:100AC800BC00BD013D08BF004D083C02BE00031C30
:100AD800BF033E087F3EC60000303F3DC7003B08CD
:100AE800C4003A08C3003908C2003808C100003001
:100AF800BB000030BA000030B9000030B800003048
:100B0800CB000030CA000030C9000030C800CD0159
:100B1800CB2D4D080319912D922DAC2D0130C135E7
:100B2800C20DC30DC40D890B932D0130B835B90D15
:100B3800BA0DBB0D890B9A2DCB1FA32DA42DA52D66
:100B480038140130C835C90DCA0DCB0D890BA62D37
:100B580037084402031DBA2D36084302031DBA2D77
:100B680035084202031DBA2D34084102031CBD2D6D
:100B7800BE2DC72D4B173408C1023508C23B3608B5
:100B8800C33B3708C43B0130BC003C08CD071A30D2
:100B98004D02031CD02DD12D8D2D44084304420451
:100BA80041040319D82DD92DF22D4814F22D013006
:100BB800B835B90DBA0DBB0D890BDC2DCB1FE52D52
:100BC800E62DE72D38140130C835C90DCA0DCB0DF7
:100BD800890BE82DFF30C607FF30C73DBA1FF52D3A
:100BE800F62DDB2DCD01CB1FFA2DFB2D172EFF3057
:100BF8004805BC00FF304905BD00FF304A05BE006E
:100C08007F304B05BF003F083E043D043C040319F8
:100C18000E2E0F2E122ECD01CD0A172E381C152E92
:100C2800162E172E0F2E4D0803191B2E1C2E442E80
:100C38000130B8070030B93D0030BA3D0030BB3D47
:100C48003B1C272E282E442E3808BC003908BD002E
:100C58003A08BE003B08BF000130C000BF37BE0CD9
:100C6800BD0CBC0CC00B322E3F08BB003E08BA00BE
:100C78003D08B9003C08B8000130C6070030C73D40
:100C88004708803ABC0080303C02031D4D2EFF30DF
:100C98004602031C502E512E5E2EFF302000C60047
:100CA8000030C7000030BB000030BA000030B90087
:100CB8000030B80020004708803ABC0080303C0271
:100CC800031D682E0130460203186B2E6C2E782EF9
:100CD8002000C601C7010030BB000030BA00003058
:100CE800B9000030B800C50120004608BC003C0827
:100CF800CC004C1C802E812E832EBA17872E7F3075
:100D0800BC003C08BA054C36BC003C08BB00450892
:100D1800BC003C08BB044C2D08002000AE002E0887
:100D28000319972E982EAC2EA91F9B2E9C2EAC2E05
:100D38002609B0002709B1002809B2002909B30023
:100D4800B00A0319B10A0319B20A0319B30AB42E77
:100D58002908B3002808B2002708B1002608B00007
:100D68002908280427042604031DBB2EBC2EC52EE3
:100D78000030A9000030A8000030A7000030A6000D
:100D88003D2F9630AA002A08AF00D52E0130AA00C0
:100D98002A08AF070130B336B20CB10CB00C890B7E
:100DA800CF2EFE303305031DDA2EDB2ECA2EEF2E92
:100DB8000130AA002A08AF070130B0070030B13D62
:100DC8000030B23D0030B33D0130B336B20CB10C47
:100DD800B00C890BE92EFF303305031DF42EF52ED8
:100DE800DC2EFF2E0130AF020130B035B10DB20D4F
:100DF800B30D890BF92EB21B022F032F092F0230D6
:100E08002F020318082F092FF62E2F180C2F0D2F3D
:100E1800152FFF30B005FF30B1057F30B205FF3028
:100E2800B3050310AF0C2F08AA00AB01AC01AD014C
:100E38001830AA35AB0DAC0DAD0D890B1D2F2A0846
:100E4800B0042B08B1042C08B2042D08B3042E08F2
:100E580003192F2F302F352FA91F332F342F352F5C
:100E6800B3173308A9003208A8003108A7003008D2
:100E7800A60008002000C30021004208023E20000E
:100E8800BB003B08C1003808BB000630BC003C086A
:100E9800A60043088831C1208731203E86000130F2
:100EA800870020003B088100C201782F42083707DD
:100EB800BB003B08860087010108BC000630BD0066
:100EC8003D08A60043088831C1208731213E200013
:100ED8004207BE003E088600013087003C088100BA
:100EE8000130BB003B08C20741084202031C7D2FAA
:100EF8007E2F5A2F3A080319822F832F872F4308F2
:100F08008931282187312000390803198C2F8D2F2A
:100F1800912F430889314B21873102302000430249
:100F28000318972F982FA02F4108BB00BC013B083E
:100F3800BF003C08C000A42F0130BF000030C00033
:100F48000630BB003B08A60043088831C120873122
:100F5800213E2000AA000130AB003F08BC003C083D
:100F6800AC0043080A3E8B31B42387310630200099
:100F7800BB003B08A60043088831C1208731203ECA
:100F88002000AA000130AB00AC01AC0A4308113EB6
:100F98008B31B42387312000BC003C082100C600F7
:100FA80008002000B7007E3037020318DC2FDD2F41
:100FB800E52F3708B300B4013308B5003408B6008C
:100FC800E92F7D30B5000030B6003508B30033088E
:100FD8002100C400C4302000AA000030AB00AC01DE
:100FE800AC0A05308B31B42387312000B3003308B5
:060FF8002100C600080004
:1010040021002F08080020002708E7002608E60032
:1010140008002000E501E50A71082100AB00700812
:10102400AA000800700824009100141C1A281B2828
:10103400172811080800BA345E34BA341134003465
:101044004E346F3464346534303420005D0A031D3B
:1010540031285E0A03192F28312801303228003044
:10106400080020002908A7002808A60088310520C8
:10107400883122000E108E140800640080010131B2
:101084000130FE020030FF3B7F087E04031D402830
:101094000034FE0012001E000130FE020030FF3B4F
:1010A4007F087E04031D4C28003480302000E100BA
:1010B4000030E200FF30DD00FF30DE00FF30DF00F3
:1010C400FF30E00008007E1C6928883114282000C5
:1010D400260824009100141C702871286D2811081A
:1010E400080022008E10FF30F1007108F00020008B
:1010F40067088A0066080A008831F2007208210035
:10110400C60022008E140800FF30F3007308F400B8
:101114008831732088312100461F9128922897280E
:10112400460C0739F3007308F40074080800220021
:101134000E1200302000B000B1008831D720883171
:1011440000302000A600A7008831EF2088318831C4
:101154005720883108002000B5003508AA00003067
:10116400AB000530B3003308AC0010308B31B4232E
:1011740088312000B40034082100C6000800200093
:10118400A900A801291CC728C828CC282608A7001C
:101194002708A8070310A60D0310A90C2908031D8E
:1011A400D428D528C4282808080020003008B20014
:1011B4000530B235FF3E031DDB2832352C0091008B
:1011C40020003108B3003008B200B336B20CB33695
:1011D400B20C32082C009200080020002608A80057
:1011E4000530A835FF3E031DF32828352C00940054
:1011F40020002708A9002608A800A936A80CA936AB
:10120400A80C28082C0095000800C1302000B30069
:101214003308A700A801A80A00308A31E4228931E2
:1012240021004114C114C1302000AA000030AB00D9
:10123400AC01AC0A00308B31B42389312000B300F7
:1012440033082100C60022000E1408002000B50057
:101254003630B3003308A700A801A80A02308A3147
:10126400E422893101302000B300350A3A29B3352C
:10127400890B39293308B4003408B6043630AA007F
:101284000030AB00AC01AC0A02308B31B42389319D
:1012940008002000B5003630B3003308A700A801C9
:1012A400A80A01308A31E422893101302000B300D8
:1012B400350A5D29B335890B5C293308B400340839
:1012C400B6043630AA000030AB00AC01AC0A0130E1
:1012D4008B31B42389310800200065080319732970
:1012E40074297F29E50122000E1621002A082C0703
:1012F400A8002B082D3DA9009029210029082D02C2
:10130400031D862928082C02031C89298A2990296F
:1013140022000E1E8E298F2990290E12080020000B
:10132400AE00AA01AB012608A800A9012808AC0058
:101334002908AD002E1C9F29A029A4292C08AA073E
:101344002D08AB3D0130AC35AD0D890BA52903103B
:10135400AE0C2E08031DAF29B0299C292B08A70029
:101364002A08A60008002000B400C130B3003308E6
:10137400A700A801A80A00308A31E422893120009C
:101384003408013921004111031D4115C1302000E9
:10139400AA000030AB00AC01AC0A00308B31B4239E
:1013A40089312000B30033082100C6000800200062
:1013B400B5002100430820003506F0393506210028
:1013C400C30020003308B400B40E210043082000F9
:1013D40034060F3934062100C300C3302000AA00AC
:1013E4000030AB00AC01AC0A04308B31B42389313A
:1013F4002000B40034082100C60008002000A90021
:10140400AA01AA0A5E08803AA6006008803A260269
:10141400031D0E2A5F085D020318112A122A262AC8
:1014240020005D085F02A7005E08603BA800280852
:10143400803A803C031D202A270829020318232A06
:10144400242A262A2000AA0120002A0808002000B5
:10145400A801A80A5F08013EA6000030603DA7006D
:101464005E082706031D382A5D08260603193B2A51
:101474003C2A532A5D085E04031D412A422A522A4B
:101484006108FF3EA600FF30623DA7006008270602
:10149400031D4E2A5F0826060319512A522A532A8D
:1014A400A801280808002000B400C530B3003308A0
:1014B400A700A801A80A06308A31E4228A31200054
:1014C40034080139B300B30DB30DB30D2100450841
:1014D40020003306F73933062100C500C53020004B
:1014E400AA000030AB00AC01AC0A06308B31B42347
:1014F4008A312000B30033082100C6000800F80038
:10150400F90122008E1078082038F4007408F000E5
:10151400200067088A0066080A008A31F901A92AAE
:101524007908F400F5017408710786007508723DA6
:1015340087000108F6007608F000200067088A009A
:1015440066080A008A310130F4007408F907730848
:101554007902031CAE2AAF2A922A22008E140800B4
:101564002100AC01AD017830990023008C018D017C
:1015740044308E00443021008E003F308D00FF3017
:101584008C004030240094002130950083302100E9
:1015940095000530200095008B16FF309B00043029
:1015A4009C00C0302C009300C0309600A030210075
:1015B4009E001D140430270092008B150B100B178E
:1015C4008B1708002000AD00AE0122008E10200011
:1015D4002D08A9002908A60067088A0066080A00E1
:1015E4008A312000AE010D2BFF30A9002908A60086
:1015F40067088A0066080A008A312000AA002E08BB
:101604002707AB002B08860087012A0881000130D8
:10161400A9002908AE0728082E02031C122B132B3D
:10162400F62A22008E1408002000B600360803199A
:101634001C2B1E2B01301F2B0030B3003308B607C0
:10164400043036020318272B282B2B2BB401B501A9
:101654002F2B0330B4000030B5003408B300330836
:10166400B6003608B30033082100C200C23020009F
:10167400AA000030AB00AC01AC0A03308B31B423B8
:101684008B312000B30033082100C600080020007D
:101694002608270403194F2B502B792BAB01AB0AD7
:1016A4005C2B0130A635A70D890B542B0130AA0001
:1016B4002A08AB07A71F5F2B602B532B270829028F
:1016C400031D662B26082802031C692B6A2B6E2B2C
:1016D4002608A8022708A93B0130A736A60C890BC7
:1016E4006F2B0130AB02031D782B792B602B29085B
:1016F400A7002808A6000800FD1C812B822B8F2B35
:10170400210039082000A6002608E40021003A0838
:101714002000A6002608E300FD107D1C922B932BCD
:10172400B32B073021003106031D992B9A2BB22BC2
:1017340032082000A6002608E40021003308200017
:10174400A60026082100AF0034082000A6002608C1
:10175400E300210035082000A60026082100AE0081
:101764007D1008002000B000B20122008E1020007D
:1017740030082038AD002D08A60067088A006608E6
:101784000A008B312000AE002E08B100B201E12B1B
:101794003208AD00AE012D082A0786002E082B3D25
:1017A40087000108AF002F08A60067088A006608B2
:1017B4000A008B3101302000AD002D08B2072C083F
:1017C4003202031CE62BE72BCA2B22008E142000C6
:1017D400310808002000B700C530B3003308A70063
:1017E400A801A80A06308A31E4228B310430200093
:1017F40037020318FE2BFF2B072C3708B300B40164
:101804003308B5003408B6000B2C0330B5000030A3
:10181400B6003508B300B30D210045082000330697
:10182400F93933062100C500C5302000AA00003074
:10183400AB00AC01AC0A06308B31B4238B312000F1
:10184400B30033082100C6000800FB0022008E10FC
:1018540061302000A0002008F00067088A006608B4
:101864000A008C312000A10021082100C600FC01DF
:10187400532CFF302000A0002008F00067088A00E5
:1018840066080A008C312000A1007C087B07A200B6
:10189400220886008701210881000130A000200869
:1018A400FC077A087C02031C582C592C3B2C220080
:1018B4008E1421004617C630F1000030F200F30107
:1018C400F30A07308A3181228C3108002000AF01ED
:1018D400883127208C31003A031D712C722CA62CE0
:1018E40070302000AC002130AD005D082C0786006C
:1018F4005E082D3D87000108AE002E08AF005E088B
:101904006006031D872C5D085F06031D8A2C8B2C43
:10191400942CFF30DD00FF30DE00FF30DF00FF30AD
:10192400E000A62C6208A7006108A6005D08013E3D
:10193400A80000305E3DA9008B3149238C31200082
:101944002708DE002608DD0020002F0808002000FC
:10195400B0008A3129228C31003A031DB22CB32CF9
:10196400EA2C20005D0A031DBD2C5E0A0319BB2C62
:10197400BD2C0130BE2C0030AC00AD012C08DD07BD
:101984002D08DE3D6208A7006108A6005F08013E3D
:10199400A8000030603DA9008B3149238C31200020
:1019A4002708E0002608DF0002305D3E860087013C
:1019B4007030AC002130AD00403F2C07AE00413FF9
:1019C4002D3DAF002E0886002F08870030088100C7
:1019D40008000A302100E0000030E1006430E20039
:1019E4000030E300E830E4000330E5008A31B2223D
:1019F4008C318D31A6258C31883199208C318931F7
:101A04006E218C318B317E238C31210061082D02B3
:101A1400031D0E2D60082C02031C112D122D1B2DED
:101A24002C080A3EE00000302D3DE1008D313F25B9
:101A34008C31210063082D02031D222D62082C0223
:101A4400031C252D262D2C2D2C08643EE20000308D
:101A54002D3DE30065082D02031D322D64082C0280
:101A6400031C352D362D012D2C08E83EE4000330EF
:101A74002D3DE500012D803147289731FA278D311E
:101A84002000DB005B082100DF00883102208D315B
:101A94002000DB005B082100DD009731FD278D313C
:101AA4002000DB005B082100DE0030082000DB00A2
:101AB4005B08D90021005D082000DC005C08DA0026
:101AC40021005F088E3185268D3121005F082000BA
:101AD400DB005B082100B00001308A3100228D3127
:101AE400003A0319762D772D7C2D210030088C3196
:101AF400A9248D318C3168248D312000DB00DC0178
:101B0400DB35DC0DDD305B07840082305C3D850015
:101B1400003FB000013FB1008831D7208D31210052
:101B24005E082000DB00DC01DB35DC0DDD305B070B
:101B3400840082305C3D8500003FA600013FA70081
:101B44008831EF208D310800EB30860000308700AB
:101B5400463084000030850005302000C4001600A3
:101B64001A00C40BB12DE6308600003087004B30DC
:101B74008400003085000530C40016001A00C40B30
:101B8400BF2D6530A8000830A900883133208D317D
:101B940001308931B5218D3105308B3116238D31DA
:101BA40000308A3155228D3103308B31EC238D3155
:101BB40064308731D5278D314B302000C400440870
:101BC400B7000830C5004508B800B901B90ABA0120
:101BD400BA0A003087313E278D3146302000C400D8
:101BE4004408B7000830C5004508B800B901BA0177
:101BF400BA0A013087313E278D314B308831AD2010
:101C04008D3104302000C4004408B3000A30893107
:101C1400D9218D31893107218D310800031020002D
:101C2400500D510DD2005208D8005808031D1B2E28
:101C34001C2E252E0030D1000030D0000030CF0003
:101C44000030CE00842E4E08D2004F08D300500836
:101C5400D4005108D5001F30D536D40CD30CD20C87
:101C6400890B2E2E5208D6005608D700D017FF3005
:101C7400CE05FF30CF05FF30D0050030D1059630BA
:101C8400D802D81F462E472E5F2E5808803A973E1A
:101C940003184D2E4E2E4F2E1C2E0130D136D00C53
:101CA400CF0CCE0C890B502E0130D2005208D8072D
:101CB400031D5D2E5E2E4F2E742E20305802031C01
:101CC400642E652E6F2E1C2E0130CE35CF0DD00D17
:101CD400D10D890B672E0130D8025808031D732ECD
:101CE400742E662E57080319782E792E842ECE0969
:101CF400CF09D009D109CE0A0319CF0A0319D00A92
:101D04000319D10A08002100DC005C0820005906F0
:101D140003198D2E8E2EFF2F21005C0820005902FE
:101D24000318952E962E4A2F590821005C02D800DC
:101D3400D901031CD90320005A082100CF00D00187
:101D4400D101D20152082000A9002100510820002D
:101D5400A800210050082000A70021004F082000FF
:101D6400A6000130863191268E3120002908B70063
:101D74002808B6002708B5002608B4002100580832
:101D84002000A600210059082000A700A801A901ED
:101D94000030863191268E3120002908BB002808A6
:101DA400BA002708B9002608B8008431DD248E3132
:101DB400200037082100D700200036082100D60073
:101DC400200035082100D500200034082100D4006B
:101DD400DB01DB0A3D2F5B08CF00D001D101D2012A
:101DE40052082000A900210051082000A800210069
:101DF40050082000A70021004F082000A600013051
:101E0400863191268E3120002908BB002808BA00AB
:101E14002708B9002608B800210057082000B70099
:101E2400210056082000B600210055082000B50006
:101E3400210054082000B400803186208E31200017
:101E44003708D1003608D0003508CF003408CE005A
:101E54008E3110268E3120004E0859072100D30000
:101E64005308DA005A088C31A9248E31013021003C
:101E7400CF004F08DB0720005A0821005B02031C37
:101E8400442F452FED2E5C088C31A9248E31FF2F71
:101E940021005C08200059022100D800D901031C4C
:101EA400D90320005A082100CF00D001D101D2016A
:101EB40052082000A900210051082000A800210098
:101EC40050082000A70021004F082000A600013080
:101ED400863191268E3120002908B7002808B600E3
:101EE4002708B5002608B400210058082000A600E1
:101EF400210059082000A700A801A901003086315B
:101F040091268E3120002908BB002808BA00270832
:101F1400B9002608B8008431DD248E31200037084A
:101F24002100D700200036082100D6002000350803
:101F34002100D500200034082100D400DB01DB0A95
:101F4400F32F5B08CF00D001D101D2015208200049
:101F5400A900210051082000A800210050082000F9
:101F6400A70021004F082000A600013086319126E9
:101F74008E3120002908BB002808BA002708B900C0
:101F84002608B800210057082000B7002100560891
:101F94002000B600210055082000B5002100540897
:101FA4002000B400803186208E3120003708D10013
:101FB4003608D0003508CF003408CE008E31102604
:101FC4008E3120004E0859022100D3005308DA0054
:101FD4005A088C31A9248E3101302100CF004F08DA
:101FE400DB0720005A0821005B02031CFA2FFB2F99
:0C1FF400A32F5C088C31A9248E3108005A
:0C2FF400200064080800200063080800AA
:020000040001F9
:04000E00C239FF13E1
:00000001FF
