:020000040000FA
:0400000080314728DC
:100008007E1480310B1D09280A2814280530200089
:10001800950001302100E9070030EA3D0B11452821
:100028000B1C1728182845283230F0000030F10042
:1000380095318B2580319631192680312000A20018
:100048002208A4000830A2002208FA002408A3000D
:100058000230A335FF3E031D2D2823354A3E8A3141
:100068005322803101302000A200240A3C28A23506
:10007800890B3B282208A3002308E70027009301E7
:100088000B107E100900803149287030840021301F
:1000980085008030FE000030FF009531CF2580318B
:1000A8002000E401E501E601E701E801D830840019
:1000B800003085001730FE000030FF009531CF2555
:1000C800803120308400013085005030FE0000303F
:1000D800FF009531CF258031A030840001308500A4
:1000E8004430FE000030FF009531CF2580317E106E
:1000F80020008C31C22C200036088039BB003B0818
:10010800C0003635BB003B08C600B51F8C288D28BB
:100118008E2846144608031992289328A228460ACE
:10012800031D97289828A0280030B6000030B50095
:100138000030B4000030B300B517AA280030B6006C
:100148000030B5000030B4000030B3003A08803900
:10015800BB003B08C0063A35BB003B08C100B91FCD
:10016800B628B728B828411441080319BC28BD2867
:10017800CC28410A031DC128C228CA280030BA0069
:100188000030B9000030B8000030B700B917D428E3
:100198000030BA000030B9000030B8000030B700B5
:1001A80041080319D828D928DE284608031DDD2868
:1001B800DE28E7280030B6000030B5000030B40073
:1001C8000030B300D52A3308BB003B08A500390826
:1001D80097315F27803120002608CC002508CB0006
:1001E8004B08BB00BC01BD01BE013E08C5003D086F
:1001F800C4003C08C3003B08C2004C08BB00BC015B
:10020800BD01BE013E08CA003D08C9003C08C8003F
:100218003B08C7003408BB003B08A50038089731E5
:100228005F27803120002608CC002508CB004B082A
:10023800BB00BC01BD01BE013B08C2073C08C33D71
:100248003D08C43D3E08C53D4C08BB00BC01BD018E
:10025800BE013B08C7073C08C83D3D08C93D3E08EC
:10026800CA3D3508BB003B08A500370897315F2712
:10027800803120002608CC002508CB004B08BB00A5
:10028800BC01BD01BE013B08C2073C08C33D3D0897
:10029800C43D3E08C53D4C08BB00BC01BD01BE01C4
:1002A8003B08C7073C08C83D3D08C93D3E08CA3D54
:1002B8000830C235C30DC40DC50D890B5D2934083E
:1002C800BB003B08A500370897315F278031200025
:1002D8002608CC002508CB004B08C2074C08C33DB4
:1002E8000030C43DC53D3308BB003B08A5003808B5
:1002F80097315F27803120002608CC002508CB00E5
:100308004B08C2074C08C33D0030C43DC53D08300A
:10031800C235C30DC40DC50D890B8C293308BB002C
:100328003B08A500370897315F2780312000260851
:10033800CC002508CB004B08C2074C08C33D003051
:10034800C43DC53D3408BB003B08A50039089731BA
:100358005F27803120002608CC002508CB004B08F9
:10036800C7074C08C83D0030C93DCA3D3508BB0029
:100378003B08A500380897315F2780312000260800
:10038800CC002508CB004B08C7074C08C83D0030F7
:10039800C93DCA3D3508BB003B08A500390897315F
:1003A8005F27803120002608CC002508CB004B08A9
:1003B800BB004C08BC00BD01BE010830BB35BC0DFC
:1003C800BD0DBE0D890BE2293B08C7073C08C83D97
:1003D8003D08C93D3E08CA3D4208BB004308BC0071
:1003E8004408BD004508BE001830BE36BD0CBC0C24
:1003F800BB0C890BF9293B08C7073C08C83D3D08D9
:10040800C93D3E08CA3D0830C235C30DC40DC50DEF
:10041800890B082A46084107BB00BC01BC0D3B08F4
:10042800823ECB00FF303C3DCC00312A0130C7353D
:10043800C80DC90DCA0D890B1B2AC51F242A252AD8
:10044800262A47140130C235C30DC40DC50D890BCA
:10045800272AFF30CB07FF30CC3DC91F342A352A65
:100468001A2AC101C51F392A3A2A562AFF304205DD
:10047800BB00FF304305BC00FF304405BD007F30A2
:100488004505BE003E083D043C043B0403194D2AC3
:100498004E2A512AC101C10A562A471C542A552AF4
:1004A800562A4E2A410803195A2A5B2A832A013000
:1004B800C7070030C83D0030C93D0030CA3D4A1C5E
:1004C800662A672A832A4708BB004808BC004908EF
:1004D800BD004A08BE000130BF00BE37BD0CBC0CD1
:1004E800BB0CBF0B712A3E08CA003D08C9003C0876
:1004F800C8003B08C7000130CB070030CC3D4C0892
:10050800803ABB0080303B02031D8C2AFF304B022F
:10051800031C8F2A902A9A2A7F302000CA00803034
:10052800C9000030C8000030C700C92A20004C08A4
:10053800803ABB0080303B02031DA42A01304B02E5
:100548000318A72AA82AB32A00302000CA000030BE
:10055800C9000030C8000030C700C001C92A200007
:100568004B08BB003B08C600FF30C705FF30C80575
:100578007F30C9050030CA05461CC32AC42AC52ACB
:10058800C9174636BB003B08CA004008BB003B08F9
:10059800CA044A08B6004908B5004808B400470824
:1005A800B300080000340034003400340034003450
:1005B8000034003400340034003400340134003492
:1005C800013400340134003401340034023400347E
:1005D8000234003402340034033400340334003469
:1005E8000434003404340034053400340534003451
:1005F8000634003406340034073400340834003438
:1006080008340034093400340A3400340B3400341C
:100618000B3400340C3400340D3400340E34003400
:100628000F340034103400341134003412340034E0
:1006380013340034143400341634003417340034BE
:1006480018340034193400341A3400341C3400349B
:100658001D3400341E340034203400342134003476
:10066800233400342434003426340034273400344E
:10067800293400342B3400342C3400342E34003424
:1006880030340034313400343334003435340034F9
:1006980037340034393400343B3400343C340034CB
:1006A8003E3400344034003442340034453400349D
:1006B80047340034493400344B3400344D3400346A
:1006C8004F34003452340034543400345634003437
:1006D800583400345B3400345D3400346034003402
:1006E8006234003465340034673400346A340034CA
:1006F8006C3400346F340034723400347434003491
:10070800773400347A3400347D3400347F34003454
:100718008234003485340034883400348B34003417
:100728008E340034913400349434003497340034D7
:100738009A3400349D340034A0340034A434003496
:10074800A7340034AA340034AD340034B134003452
:10075800B4340034B8340034BB340034BE3400340C
:10076800C2340034C5340034C9340034CC340034C5
:10077800D0340034D4340034D7340034DB3400347B
:10078800DF340034E3340034E6340034EA3400342F
:10079800EE340034F2340034F6340034FA340034E1
:1007A800FE34003402340134063401340A3401348E
:1007B8000E34013412340134163401341A3401343D
:1007C8001F34013423340134273401342C340134E8
:1007D8003034013434340134393401343D34013493
:1007E80042340134463401344B3401344F3401343B
:1007F80054340134593401345D34013462340134E1
:10080800673401346B340134703401347534013485
:100818007A3401347F340134843401348934013426
:100828008E34013493340134983401349D340134C6
:10083800A2340134A7340134AC340134B234013465
:10084800B7340134BC340134C1340134C734013401
:10085800CC340134D1340134D7340134DC3401349C
:10086800E2340134E7340134ED340134F234013434
:10087800F8340134FE3401340334023409340234C8
:100888000F340234153402341A340234203402345A
:10089800263402342C3402343234023438340234EC
:1008A8003E340234443402344A340234503402347C
:1008B800563402345C34023463340234693402340A
:1008C8006F340234753402347C3402348234023496
:1008D800883402348F340234953402349C34023420
:1008E800A2340234A9340234AF340234B6340234A8
:1008F800BC340234C3340234CA340234D03402342F
:10090800D7340234DE340234E5340234EC340234B1
:10091800F3340234F9340234003403340734033432
:100928000E340334153403341C34033424340334B0
:100938002B3403343234033439340334403403342D
:10094800473403344F340334563403345D340334AA
:10095800653403346C340334743403347B34033423
:10096800833403348A34033492340334993403349B
:10097800A1340334A9340334B0340334B834033411
:10098800C0340334C8340334CF340334D734033485
:10099800DF340334E7340334EF340334F7340334F7
:1009A800FF34033420003A088039BB003B08C400F8
:1009B8003A35BB003B08CB00B91FE32CE42CE52CEF
:1009C8004B144B080319E92CEA2CFA2C4B0A031D8B
:1009D800EE2CEF2CF72C0030BA000030B9000030B4
:1009E800B8000030B700B917BA01022D0030BA00BC
:1009F8000030B9000030B8000030B7003608803940
:100A0800BB003B08C4063635BB003B08CC00B51F0D
:100A18000E2D0F2D102D4C144C080319142D152DC7
:100A2800252D4C0A031D192D1A2D222D0030B60034
:100A38000030B5000030B4000030B300B517B6017F
:100A48002D2D0030B6000030B5000030B400003065
:100A5800B3003608350434043304031D342D352D12
:100A68004E2D0030BA000030B9000030B800003018
:100A7800B7008030B9047F30BA044408BB003B0893
:100A8800BA043A08B6003908B5003808B40037087F
:100A9800B300892E4B08031D522D532D5C2D0030B9
:100AA800B6000030B5000030B4000030B300892E25
:100AB8004B08BB00BC013C08BE004C083B02BD0013
:100AC800031CBE033D087F3EC50000303E3DC60006
:100AD8003A08C3003908C2003808C1003708C00006
:100AE8000030BA000030B9000030B8000030B7005C
:100AF8000030CA000030C9000030C8000030C7000C
:100B0800CC01C42D4C0803198A2D8B2DA52D01303D
:100B1800C035C10DC20DC30D890B8C2D0130B73501
:100B2800B80DB90DBA0D890B932DCA1F9C2D9D2D9B
:100B38009E2D37140130C735C80DC90DCA0D890B54
:100B48009F2D36084302031DB32D35084202031DAD
:100B5800B32D34084102031DB32D33084002031C92
:100B6800B62DB72DC02D4A173308C0023408C13B33
:100B78003508C23B3608C33B0130BB003B08CC07F5
:100B88001A304C02031CC92DCA2D862D4308420475
:100B9800410440040319D12DD22DEB2D4714EB2D20
:100BA8000130B735B80DB90DBA0D890BD52DCA1F4F
:100BB800DE2DDF2DE02D37140130C735C80DC90DE6
:100BC800CA0D890BE12DFF30C507FF30C63DB91F9F
:100BD800EE2DEF2DD42DCC01CA1FF32DF42D102EA0
:100BE800FF304705BB00FF304805BC00FF30490512
:100BF800BD007F304A05BE003E083D043C043B046E
:100C08000319072E082E0B2ECC01CC0A102E371CE8
:100C18000E2E0F2E102E082E4C080319142E152EEA
:100C28003D2E0130B7070030B83D0030B93D0030E7
:100C3800BA3D3A1C202E212E3D2E3708BB0038081D
:100C4800BC003908BD003A08BE000130BF00BE37FD
:100C5800BD0CBC0CBB0CBF0B2B2E3E08BA003D08CC
:100C6800B9003C08B8003B08B7000130C5070030A0
:100C7800C63D4608803ABB0080303B02031D462E25
:100C8800FF304502031C492E4A2E572EFF30200004
:100C9800C5000030C6000030BA000030B90000308E
:100CA800B8000030B70020004608803ABB0080300A
:100CB8003B02031D612E013045020318642E652E88
:100CC800712E2000C501C6010030BA000030B900FD
:100CD8000030B8000030B700C40120004508BB0050
:100CE8003B08CB004B1C792E7A2E7C2EB917802E10
:100CF8007F30BB003B08B9054B36BB003B08BA0048
:100D08004408BB003B08BA04452D08002100A80090
:100D18002808200058060319922E932EEA2F210046
:100D280028082000580203189A2E9B2E422F580894
:100D380021002802A400A501031CA50320005908CE
:100D4800DA00DB01DC01DD015D08A8005C08A70012
:100D58005B08A6005A08A50001308E31702686313E
:100D680020002808B6002708B5002608B400250882
:100D7800B300210024082000A50021002508200038
:100D8800A600A701A80100308E3170268631200008
:100D98002808BA002708B9002608B8002508B700AF
:100DA8008431D6248631200036082100A300200093
:100DB80035082100A200200034082100A1002000ED
:100DC80033082100A000A701A70A352F2708200013
:100DD800DA00DB01DC01DD015D08A8005C08A70082
:100DE8005B08A6005A08A50001308E3170268631AE
:100DF80020002808BA002708B9002608B8002508E6
:100E0800B700210023082000B60021002208200096
:100E1800B500210021082000B4002100200820008E
:100E2800B30080317F20863120003608D000350895
:100E3800CF003408CE003308CD008C314D248631E4
:100E480020004D085807DE005E082100A60026088D
:100E58008B313223863101302000DA005A08210014
:100E6800A7072000590821002702031C3C2F3D2F0B
:100E7800EA2E28088B3132238631EA2F21002808F0
:100E8800200058022100A400A501031CA50320008E
:100E98005908DA00DB01DC01DD015D08A8005C0807
:100EA800A7005B08A6005A08A50001308E317026FD
:100EB800863120002808B6002708B5002608B400A7
:100EC8002508B300210024082000A50021002508DA
:100ED8002000A600A701A80100308E3170268631B7
:100EE80020002808BA002708B9002608B8002508F5
:100EF800B7008431D6248631200036082100A300AB
:100F0800200035082100A200200034082100A1009B
:100F1800200033082100A000A701A70ADE2F270818
:100F28002000DA00DB01DC01DD015D08A8005C08B7
:100F3800A7005B08A6005A08A50001308E3170266C
:100F4800863120002808BA002708B9002608B8000A
:100F58002508B700210023082000B6002100220838
:100F68002000B500210021082000B400210020083D
:100F78002000B30080317F20863120003608D00061
:100F88003508CF003408CE003308CD008C314D240D
:100F9800863120004D085802DE005E082100A600B8
:100FA80026088B313223863101302000DA005A08B6
:100FB8002100A7072000590821002702031CE52F5C
:100FC800E62F932F28088B31322386310800200022
:100FD800B4003408A9000030AA000530B200320875
:100FE800AB0010308831F02087312000B30033087F
:060FF8002200DF000800EA
:101004002000B3005A30A6000130A700A801A80AA6
:101014000030893128218831200033080139220029
:101024005A11031D5A155A302000A9000130AA0094
:10103400AB01AB0A00308831F02088312000B200C7
:1010440032082200DF000800F800F90122008E10A7
:1010540078082038F4007408F000200065088A003D
:1010640064080A008831F9014E287908F400F50172
:101074007408710786007508723D87000108F60040
:101084007608F000200065088A0064080A008831A8
:101094000130F4007408F90773087902031C53281B
:1010A4005428372822008E1408002000A800A90123
:1010B400A90A21005908803A2000A50021005B08F4
:1010C400803A20002502031D6A2821005A0858028C
:1010D40003186D286E288528210058085A0220001C
:1010E400A600210059085B3B2000A7002708803A8E
:1010F400803C031D7F2826082802031882288328A1
:1011040085282000A9012000290808002000B50036
:10111400350803198E289028013091280030B20038
:101124003208B50704303502031899289A289D28F7
:10113400B301B401A1280330B3000030B400330874
:10114400B2003208B5003508B20032082200DB00D4
:101154005B302000A9000130AA00AB01AB0A0330C8
:101164008831F02088312000B20032082200DF00EC
:1011740008002000250826040319C128C228EB28EA
:10118400AA01AA0ACE280130A535A60D890BC628C6
:101194000130A9002908AA07A61FD128D228C528EA
:1011A40026082802031DD82825082702031CDB284B
:1011B400DC28E0282508A7022608A83B0130A6362B
:1011C400A50C890BE1280130AA02031DEA28EB28AB
:1011D400D2282808A6002708A50008002000AF0090
:1011E400B10122008E1020002F082038AC002C08FA
:1011F400A50065088A0064080A0088312000AD0053
:101204002D08B000B1011D293108AC00AD012C0836
:10121400290786002D082A3D87000108AE002E0804
:10122400A50065088A0064080A008931013020009D
:10123400AC002C08B1072B083102031C22292329F6
:10124400062922008E142000300808002000B00077
:10125400B10122008E1020003008A9002908A50041
:1012640065088A0064080A0089312000B101582900
:10127400FF30A9002908A50065088A0064080A004F
:1012840089312000AA003108AB00AC012B082607E5
:10129400AD002C08273DAE002D0886002E088700DF
:1012A4002A0881000130A9002908B1072808310261
:1012B400031C5D295E293A2922008E1408002000AF
:1012C400B6005E30A6000130A700A801A80A0630C7
:1012D400893128218931043020003602031873290A
:1012E40074297C293608B200B3013208B4003308EB
:1012F400B50080290330B4000030B5003408B200D2
:10130400B20D22005E0820003206F93932062200AE
:10131400DE005E302000A9000130AA00AB01AB0A58
:1013240006308831F02089312000B20032082200D2
:10133400DF0008002000A90022008E10A030200049
:10134400A7002708A50065088A0064080A008931F7
:101354002000A80028082200DF002000AA01C729D5
:101364002A082907A70027088600013087000108FA
:10137400A8002808A50065088A0064080A008931C5
:1013840001302000A7002708AA0726082A02031C08
:10139400CC29CD29B22922000E142130890BD02961
:1013A400000022000E108E1408002000A701A70AD6
:1013B40021005A08013E2000A500003021005B3DB9
:1013C4002000A6002100590820002606031DEE294E
:1013D40021005808200025060319F129F229122AB0
:1013E400210058085904031DF829F929102A5C081A
:1013F400FF3E2000A500FF3021005D3D2000A60037
:1014040021005B0820002606031D0C2A21005A082F
:101414002000250603190F2A102A122A2000A701EA
:10142400270808002100E901EA0178309900230027
:101434008C018D0144308E00443021008E003F30F9
:101444008D00FF308C004030240094002130950042
:101454008330210095000530200095008B16FF3065
:101464009B0004309C000030AF00B000963142264F
:101474008A3100302000A500A60096315A268A3110
:10148400C0302C009300C0309600A03021009E0094
:101494001D140430270092008B150B100B178B17AB
:1014A40008002000A00022008E106130FB007B08A1
:1014B400F000200065088A0064080A008A31FC00F4
:1014C4007C082200DF002000A101802AFF30FB00FD
:1014D4007B08F00065088A0064080A008A31FC0071
:1014E400200021082007FD007D08860001308700C8
:1014F4007C0881000130FB007B08A1077A082102E7
:10150400031C852A862A682A22008E145F175F30FE
:10151400F1000130F200F301F30A0730883126208C
:101524008A3108002000AB012030280203189B2ACE
:101534009C2AE12A1F302505A90000302605AA00AF
:1015440029082A04031DA72AA82AE12A8B1326089E
:10155400230092002000250823009100151315157F
:101564009516D22A2B082707A90029088600870187
:10157400010823009300940195319C258A310130A0
:101584002000A9002908AB0728082B02031CCB2A3A
:10159400CD2A0130CE2A0030A90029082300910762
:1015A400200028082B02031CD82AD92AB42A230095
:1015B400951295319C258A31230015118B1708004B
:1015C4002000AE019531B7258A31003A031DEB2A7C
:1015D400EC2A2F2B70302000AB002130AC0021000E
:1015E400580820002B0786002100590820002C3DB4
:1015F40087000108AD002D08AE00210059085B06E4
:10160400031D062B58085A06031D092B0A2B132BFE
:10161400FF30D800FF30D900FF30DA00FF30DB00A4
:101624002F2B5D082000A60021005C082000A500E7
:1016340021005808013E2000A70000302100593D38
:101644002000A8008831BB208A3120002608210010
:10165400D900200025082100D80020002E08080009
:101664002000AF008931D7218B31003A031D3B2B79
:101674003C2B822B2100580A031D462B590A0319BF
:10168400442B462B0130472B00302000AB00AC012B
:101694002B082100D80720002C082100D93D5D0823
:1016A4002000A60021005C082000A50021005A08A3
:1016B400013E2000A700003021005B3D2000A8006F
:1016C4008831BB208B31200026082100DB0020005C
:1016D40025082100DA000230D83E860087017030E8
:1016E4002000AB002130AC00403F2B07AD00413F50
:1016F4002C3DAE002D0886002E0887002F0881009F
:101704000800953176258B312000DF005F08E30067
:1017140095317C258B312000DF005F08E100953195
:1017240079258B312000DF005F08E2006808DF00C4
:101734005F08D8006108E0006008D90063088631BA
:101744008A268B3120006308DF005F08E80001303F
:10175400883157208B31003A0319B12BB22BB72BA8
:10176400200068088B3132238B318A31E2228B319D
:101774002000DF00E001DF35E00DD6305F07840094
:101784008230603D8500003FAF00013FB0009631DC
:1017940042268B3120006208DF00E001DF35E00DD6
:1017A400D6305F0784008230603D8500003FA5008D
:1017B400013FA60096315A268B3108008030200064
:1017C400A5001F30A6009531F7258B312E308600F9
:1017D4000030870020302000AC0000301E00AC0B2D
:1017E400F02B8030A5001F30A6009531F7258B31F2
:1017F400A53A0319FE2BFF2B4C2CA5302000AC007E
:101804002C08AE004230AC002C08AF005230AC00C3
:101814002C08B0004F30AC002C08B1004130AC00B3
:101824002C08B2004430AC002C08B3004E30AC009D
:101834002C08B4004F30AC002C08B5004430AC0088
:101844002C08B6004530AC002C08B7004C30AC0076
:101854002C08B8004530AC002C08B9004430AC006A
:101864002C08BA005830AC002C08BB006430AC0023
:101874002C08BC00BD018030A5001F30A6002E300E
:10188400AC002C08A7001030AD002D08A8008A3148
:1018940094228B310800031020004F0D500DD1000D
:1018A4005108D7005708031D582C592C622C0030BE
:1018B400D0000030CF000030CE000030CD00C12C6D
:1018C4004D08D1004E08D2004F08D3005008D40070
:1018D4001F30D436D30CD20CD10C890B6B2C51088D
:1018E400D5005508D600CF17FF30CD05FF30CE0503
:1018F400FF30CF050030D0059630D702D71F832C98
:10190400842C9C2C5708803A973E03188A2C8B2CE5
:101914008C2C592C0130D036CF0CCE0CCD0C890B2D
:101924008D2C0130D1005108D707031D9A2C9B2C14
:101934008C2CB12C20305702031CA12CA22CAC2CD3
:10194400592C0130CD35CE0DCF0DD00D890BA42CE3
:101954000130D7025708031DB02CB12CA32C560814
:101964000319B52CB62CC12CCD09CE09CF09D00949
:10197400CD0A0319CE0A0319CF0A0319D00A0800A5
:101984000A302100D0000030D1006430D200003091
:10199400D300E830D4000330D500D601D7018A3112
:1019A40014228C318B31E0238C318F311D278C3103
:1019B40095317F258C319631B1268C3121006A080E
:1019C4005706031DE72C690856060319EA2CEB2C6D
:1019D400F32C8D31CE258C3121006A08D70069089B
:1019E400D60051086A02031DF92C50086902031C31
:1019F400FC2CFD2C062D69080A3ED00000306A3DFF
:101A0400D1008B3183238C31210053086A02031DDA
:101A14000D2D52086902031C102D112D232D690868
:101A2400643ED20000306A3DD30008309631D3269C
:101A34008C3120002608AC002508AB009531AE257A
:101A44008C31210055086A02031D2A2D54086902AD
:101A5400031C2D2D2E2DDD2C6908E83ED400033007
:101A64006A3DD500DD2C803147282000C2002200C9
:101A74005B08023E2000BA003A08C0003708BA00EA
:101A84000630BB003B08A500420896312C268D3158
:101A9400C03E86000130870020003A088100C10161
:101AA400712D41083607BA003A08860087010108FB
:101AB400BB000630BC003C08A500420896312C2629
:101AC4008D31C13E20004107BD003D088600013034
:101AD40087003B0881000130BA003A08C10740087A
:101AE4004102031C762D772D532D390803197B2DC4
:101AF4007C2D802D42089631F6268D312000380841
:101B04000319852D862D8A2D4208973119278D3189
:101B14000230200042020318902D912D992D400887
:101B2400BA00BB013A08BE003B08BF009D2D01303E
:101B3400BE000030BF000630BA003A08A5004208D3
:101B440096312C268D31C13E2000A9000130AA0017
:101B54003E08BB003B08AB0042080A3E8831F02037
:101B64008D3106302000BA003A08A50042089631AB
:101B74002C268D31C03E2000A9000130AA00AB0103
:101B8400AB0A4208113E8831F0208D312000BB00A1
:101B94003B082200DF0008002000671CD22DD32D53
:101BA400E22D22004A082000B3003308E600220098
:101BB4004B082000B30033082100ED002000E7109B
:101BC400E71CE52DE62D5A2E432E22004B0820005B
:101BD400B3003308E60022004C082000B3003308A9
:101BE4002100EC0022004D082000B300330821003E
:101BF400ED0022004E082000B30033082100EB0062
:101C0400582E0230B30033082200E8002000660892
:101C1400B30033082200E90021006C082000B3005F
:101C240033082200EA0021006D082000B3003308C5
:101C34002200EB0021006B082000B30033082200CF
:101C4400EC00ED01EE01EF0120006717582E033080
:101C5400B30033082200E8009531A5258D3120001A
:101C64002508B30033082200E9009531A5258D31FC
:101C740020002608B30033082200EA00EB01EC013F
:101C8400232E220052082000B300B4013408003A85
:101C940003194D2E582E3308013A0319E72D033A40
:101CA4000319032E013A0319292E582E2000671018
:101CB400671F5D2E5E2E6F2E963172268D31083091
:101CC4002000B3003308A600683089319C218D318F
:101CD400963191268D312000671308002000AD0055
:101CE4002D080319762E772E8B2EA81F7A2E7B2E85
:101CF4008B2E2509AF002609B0002709B100280959
:101D0400B200AF0A0319B00A0319B10A0319B20ADF
:101D1400932E2808B2002708B1002608B000250831
:101D2400AF002808270426042504031D9A2E9B2EA1
:101D3400A42E0030A8000030A7000030A600003018
:101D4400A5001C2F9630A9002908AE00B42E01303E
:101D5400A9002908AE070130B236B10CB00CAF0CA3
:101D6400890BAE2EFE303205031DB92EBA2EA92ED4
:101D7400CE2E0130A9002908AE070130AF0700308C
:101D8400B03D0030B13D0030B23D0130B236B10C4F
:101D9400B00CAF0C890BC82EFF303205031DD32EB7
:101DA400D42EBB2EDE2E0130AE020130AF35B00D85
:101DB400B10DB20D890BD82EB11BE12EE22EE82E07
:101DC40002302E020318E72EE82ED52E2E18EB2E05
:101DD400EC2EF42EFF30AF05FF30B0057F30B10597
:101DE400FF30B2050310AE0C2E08A900AA01AB0106
:101DF400AC011830A935AA0DAB0DAC0D890BFC2E26
:101E04002908AF042A08B0042B08B1042C08B20432
:101E14002D0803190E2F0F2F142FA81F122F132F65
:101E2400142FB2173208A8003108A7003008A60002
:101E34002F08A5000800C030860000308700053058
:101E44002000C30000301E00C30B252FC5308600C0
:101E5400003087000530C30000301E00C30B2F2F55
:101E6400CA308600003087000530C30000301E00F1
:101E7400C30B392FA0308600003087002030C30008
:101E840000301E00C30B432F8030A7001F30A80072
:101E9400A030C3004308A9002030C4004408AA00AD
:101EA40097313C278F312100CF0104304F020318B2
:101EB4005C2F5D2F7E2F4F08063EA03E86008701D3
:101EC40001082000C30021004F08C53E8600870199
:101ED40020004308810021004F080A3EA03E8600EE
:101EE400870101082000C30021004F08CA3E860074
:101EF400870120004308810021004F08013EA03ED5
:101F04008600870101082000C30021004F08C03E5D
:101F1400860087012000430881000130C300430884
:101F24002100CF0705304F02031C992F9A2F572FFA
:101F34002F082000C30043082100C9002F082000F7
:101F4400C30043082100CE00E9302000A70015306B
:101F5400A8009531C3258F310130883102208F319B
:101F64000530883188208F3100309731D4278F3164
:101F74000330893161218F3121002E089731AA273E
:101F84008F31C0302000C3004308B6000830C400BD
:101F94004408B700B801B80AB901B90A00308D3154
:101FA40037258F31C5302000C3004308B600083000
:101FB400C4004408B700B801B901B90A01308D3131
:101FC40037258F31CA308731EB278F310430200019
:101FD400C3004308B2000A30973183278F3196310A
:101FE40091268F3132302000C30043082100EC00D9
:0C1FF400FF302000C3004308E600080096
:102AEC0020006608080021006D08080021006C0811
:102AFC00080022000E129531DB25953108002000CC
:102B0C002608E5002508E40008002100EE01EE0A85
:102B1C007108E8007008E7000800700824009100B4
:102B2C00141C992D9A2D962D110808005530230050
:102B3C009600AA30960095140000000008002100B1
:102B4C0066082000A600210065082000A5000800EA
:102B5C0020002C082100E60020002B082100E500B5
:102B6C0008002100580A031DC12D590A0319BF2D55
:102B7C00C12D0130C22D0030080020002808A6000D
:102B8C002708A50095318525953122000E108E144D
:102B9C0008006400800101310130FE020030FF3B6F
:102BAC007F087E04031DD02D003480302100DC0012
:102BBC000030DD00FF30D800FF30D900FF30DA00E4
:102BCC00FF30DB0008007E1CED2D9531932D20008D
:102BDC00250824009100141CF42DF52DF12D11085D
:102BEC000800230015132000260823009200200063
:102BFC002508230091001514000000002300130881
:102C0C00080022008E10FF30F1007108F000200047
:102C1C0065088A0064080A009631F20072082200E6
:102C2C00DF008E140800FF30F3007308F4009631B7
:102C3C000726963122005F1F242E252E2A2E5F0C8C
:102C4C000739F3007308F400740808002000A8008A
:102C5C00A701281C322E332E372E2508A600260855
:102C6C00A7070310A50D0310A80C2808031D3F2E61
:102C7C00402E2F2E2708080020002F08B100053009
:102C8C00B135FF3E031D462E31352C00910020003E
:102C9C003008B2002F08B100B236B10CB236B10C0C
:102CAC0031082C009200080020002508A7000530F0
:102CBC00A735FF3E031D5E2E27352C009400200007
:102CCC002608A8002508A700A836A70CA836A70C2C
:102CDC0027082C00950008005A302000A60001306F
:102CEC00A700A801A80A00308931282196312200BA
:102CFC005A105A302000A9000130AA00AB01AB0ACF
:102D0C0000308831F02096312000B20032082200C9
:102D1C00DF000E1008005A302000A6000130A7007A
:102D2C00A801A80A003089312821963122005A14B2
:102D3C00DA145A302000A9000130AA00AB01AB0A0A
:102D4C0000308831F02096312000B2003208220089
:102D5C00DF000E14080021006E080319B62EB72EE2
:102D6C00C22EEE0122000E16210067086907E3004F
:102D7C0068086A3DE400D22E64086A02031DC82E5E
:102D8C0063086902031CCB2ECC2ED22E22000E1E01
:102D9C00D02ED12ED22E0E1208002000A80028080A
:102DAC00A7000130A735FF3E031DD82E2735FD396E
:102DBC0021009D008530890BE12E000021009D141F
:102DCC009D1CE92EEA2EE62E1C082000AA002100EC
:102DDC001B082000A9002A08A6002908A500080045
:102DEC002000B4003530A6000030A700A801A80AC6
:102DFC00023089312821963101302000B200340A8A
:102E0C00082FB235890B072F3208B3003308B504ED
:102E1C003530A9000030AA00AB01AB0A0230883172
:102E2C00F020963108002000B4003530A6000030A8
:102E3C00A700A801A80A0130893128219731013057
:102E4C002000B200340A2B2FB235890B2A2F3208FE
:102E5C00B3003308B5043530A9000030AA00AB012B
:102E6C00AB0A01308831F020973108002000AD0109
:102E7C00AD01582F2D082707A50028080318280A8C
:102E8C00A6009531F72597312000AB002D082907B6
:102E9C00AC002C08860087012B0881000130AB00A8
:102EAC002B08AD072A082D02031C5D2F5E2F402F27
:102EBC0008002000AD00A901AA012508A700A8015F
:102ECC002708AB002808AC002D1C6D2F6E2F722F1D
:102EDC002B08A9072C08AA3D0130AB35AC0D890B8A
:102EEC00732F0310AD0C2D08031D7D2F7E2F6A2F21
:102EFC002A08A6002908A50008002000B40022001A
:102F0C005C0820003406F03934062200DC00200076
:102F1C003208B300B30E22005C08200033060F39D0
:102F2C0033062200DC005C302000A9000130AA002E
:102F3C00AB01AB0A04308831F02097312000B3008C
:102F4C0033082200DF0008002000B6007E30360275
:102F5C000318B12FB22FBA2F3608B200B3013208C2
:102F6C00B4003308B500BE2F7D30B4000030B5007E
:102F7C003408B20032082200DD005D302000A900C8
:102F8C000130AA00AB01AB0A05308831F020973133
:102F9C002000B20032082200DF0008002000B3003D
:102FAC005E30A6000130A700A801A80A06308931BE
:102FBC0028219731200033080139B200B20DB20D2F
:102FCC00B20D22005E0820003206F73932062200CC
:102FDC00DE005E302000A9000130AA00AB01AB0A74
:102FEC0006308831F02097312000B20032082200E0
:042FFC00DF000800EA
:020000040001F9
:04000E00C239FF13E1
:00000001FF
