:020000040000FA
:04000000803114280F
:100008007E1480310B1D09280A281228053020008B
:1000180095000130C6070030C73D0B117E1009005E
:10002800803116283E308400003085001930853133
:100038004D258031A0308400003085002430853182
:100048004D2580317E10200081312A297F34823469
:10005800853488348B348F349234953498349B3477
:100068009E34A134A434A734AA34AD34B034B334A4
:10007800B534B834BB34BE34C134C334C634C834E0
:10008800CB34CD34D034D234D534D734D934DB342E
:10009800DD34DF34E134E334E534E734E934EB3498
:1000A800EC34EE34EF34F134F234F334F534F6341E
:1000B800F734F834F934FA34FA34FB34FC34FC34C9
:1000C800FD34FD34FD34FE34FE34FE34FE34FE349B
:1000D800FE34FE34FD34FD34FC34FC34FB34FB3494
:1000E800FA34F934F834F734F634F534F434F334B4
:1000F800F134F034EF34ED34EB34EA34E834E634F8
:10010800E434E234E034DE34DC34DA34D834D6345F
:10011800D334D134CF34CC34CA34C734C434C234E1
:10012800BF34BC34BA34B734B434B134AE34AB347D
:10013800A834A634A3349F349C3499349634933429
:1001480090348D348A348734843481347D347A34DD
:100158007734743471346E346B3468346534623493
:100168005F345B3458345634533450344D344A3445
:100178004734443442343F343C343A3437343434EA
:1001880032342F342D342B3428342634243422347A
:1001980020341E341C341A341834163414341334EE
:1001A80011340F340E340D340B340A340934083446
:1001B8000734063405340434033403340234023477
:1001C8000134013400340034003400340034003485
:1001D8000034013401340134023402340334043469
:1001E8000434053406340734083409340B340C3429
:1001F8000D340F34103412341334153417341934C1
:100208001B341D341F342134233425342734293436
:100218002C342E3431343334363438343B343D3492
:1002280040344334463449344B344E3451345434D6
:1002380057345A345D3460346334663469346C340A
:100248006F347334763479347C347F340A30200048
:10025800BB000030BC00BD01313086000030870093
:100268000830AF0000301E00AF0B37298331A523BB
:10027800813122000E120030F000F1008431D024C8
:1002880081310030F000F1008431BB2481313E30EF
:10029800F2000530F3008531332581310130843196
:1002A8005F24813105308331172381310030833158
:1002B800F723813103308231E12281316430833187
:1002C800D023813147302000A0008530A1000830BC
:1002D800AF002F08A200A301A30AA401A40A0030BA
:1002E8008131D321813104302000AF002F08FA007A
:1002F8000A3084319D24813184317F2481318531D4
:100308002225813120003C084702031D8D293B0826
:100318004602031C90299129832900308431FA244C
:100328008131003A031999299A29B0292000C80176
:10033800C80A0830AF002F08FA00313082316A222B
:10034800813120003108AF00B0012F08F0003008DB
:10035800F1008431D02481318231AA2281312000F8
:1003680046080A3EBB000030473DBC003D082A3E17
:10037800840080300318013E85000008AF00B001FA
:100388002F08F0003008F1008431BB24813101309E
:100398002000AF002F08BD078329803114282000D2
:1003A800AE004A08023EA5002508AC002208A500B8
:1003B8000630A6002608F0002E088431E524813195
:1003C800A03E86008701200025088100AD010E2A85
:1003D8002108A6002008A5002D0825078400260866
:1003E8000318260A85000008A7000630A800280878
:1003F800F0002E088431E5248131A13E20002D072C
:10040800A900290886008701270881000130A50076
:100418002508AD072C082D02031C132A142AEC29E1
:1004280024080319182A192A1D2A2E0884313E2463
:100438008131200023080319222A232A272A2E087B
:1004480084311D248131023020002E0203182D2A08
:100458002E2A362A2C08A500A6012508AA00260857
:10046800AB003A2A0130AA000030AB000630A500E4
:100478002508F0002E088431E5248131A13E2000B2
:10048800A6002608F4002A08A7002708F5002E0869
:100498000A3E83317723813106302000A5002508E4
:1004A800F0002E088431E5248131A03E2000A6000A
:1004B8002608F400F501F50A2E08113E833177234A
:1004C80081312000A7002708CE0008002000A000E6
:1004D80022008E106130FB007B08F00020005808D5
:1004E8008A0057080A008231FC007C082000CE00F0
:1004F800A101952AFF30FB007B08F00058088A000C
:1005080057080A008231FC00200021082007FD005E
:100518007D08860087017C0881000130FB007B088C
:10052800A1077A082102031C9A2A9B2A7E2A220004
:100538008E1420004E174E30FB007B08F400F501A6
:10054800F50A073083317723823108007B30F700C2
:100558007708F100F201F20A17308331472382311C
:10056800F8007808FA00C72AFB1CBB2ABC2AE02A34
:10057800E230F7007708F000200058088A00570892
:100588000A008231E02A7A08F7000430F736890B2E
:10059800CA2A7708F800F9017908003A0319D52A18
:1005A800E02A7808013A0319E02A033A0319E02AF5
:1005B800063A0319B82AE02A08002000A2004D30A4
:1005C800FA007A08F100F201F20A06308331472373
:1005D80082310430200022020318F32AF42AFC2A6C
:1005E8002208FA00FB017A08A0007B08A100002B72
:1005F8000330A0000030A1002008FA00FA0D4D08D1
:100608007A06F9397A06CD004D30FA007A08F400F6
:10061800F501F50A0630833177238231FB007B0828
:100628002000CE0008002000A200220803191D2B7C
:100638001F2B0130202B0030FA007A08A207043063
:1006480022020318282B292B2C2BA001A101302BC7
:100658000330A0000030A1002008FA007A08A200A8
:100668002208FA007A08CA004A30FA007A08F40028
:10067800F501F50A0330833177238331FB007B08CA
:100688002000CE000800F50022008E107508F30047
:100698007308F000200058088A0057080A008331C0
:1006A800F4007408F6006C2BFF30F3007308F000B8
:1006B800200058088A0057080A008331F40071089E
:1006C80086008701740881000130F3007308F10780
:1006D8000130F202720A031D722B732B582B220071
:1006E8008E1476080800F80022008E10780820384A
:1006F800F6007608F000200058088A0057080A001B
:100708008331F7007708F9009A2B7408860087016F
:100718000108F6007608F000200058088A005708FB
:100728000A0083310130F6007608F4070130F5023B
:10073800750A031DA02BA12B892B22008E14790882
:1007480008002000C601C701783021009900230065
:100758008C018D0144308E00443021008E003F30E2
:100768008D00FF308C00403024009400223095002A
:100778008330210095000530200095003F309B0014
:1007880005309C00C0302C009300C03096008B16BA
:100798000B120B178B1708002000A2007E302202D4
:1007A8000318D72BD82BE02B2208FA00FB017A0874
:1007B800A0007B08A100E42B7D30A0000030A10040
:1007C8002008FA007A08CC004C30FA007A08F400C5
:1007D800F501F50A0530833177238331FB007B0867
:1007E8002000CE000800FC004D30FA007A08F10025
:1007F800F201F20A06308331472383317C0801393C
:10080800FA00FA0DFA0DFA0D20004D087A06F739AC
:100818007A06CD004D30FA007A08F400F501F50AA1
:100828000630833177238331FB007B082000CE001C
:100838000800FC007D30FA007A08F100F201F20AA3
:1008480001308331472384310130FA007C0A2D2C92
:10085800FA35890B2C2C7A08FB007B08FD047D30C7
:10086800FA007A08F400F501F50A0130833177239C
:1008780084310800FC007D30FA007A08F100F201AA
:10088800F20A02308331472384310130FA007C0AAE
:100898004E2CFA35890B4D2C7A08FB007B08FD0499
:1008A8007D30FA007A08F400F501F50A0230833148
:1008B800772384310800FC004930FA007A08F100F7
:1008C800F201F20A00308331472384317C08013970
:1008D80020004911031D49154930FA007A08F4002F
:1008E800F501F50A0030833177238431FB007B085A
:1008F8002000CE0008004930FA007A08F100F20121
:10090800F20A003083314723843120004914C91486
:100918004930FA007A08F400F501F50A003083310D
:1009280077238431FB007B082000CE0022000E14C0
:100938000800FD0020004B087D06F0397D06CB003D
:100948007A08FB00FB0E4B087B060F397B06CB00B1
:100958004B30FB007B08F400F501F50A04308331C5
:1009680077238431FC007C082000CE000800700842
:10097800F2000530F235FF3E031DBE2C72352C0007
:1009880094007108F3007008F200F336F20CF336A5
:10099800F20C7208950008007008F2000530F23574
:1009A800FF3E031DD32C72352C0091007108F30013
:1009B8007008F200F336F20CF336F20C720892006B
:1009C8000800F300F201731CEA2CEB2CEF2C7008E2
:1009D800F1007108F2070310F00D0310F30C73080F
:1009E800031DF72CF82CE72C72080800F300F4011B
:1009F80085310F25843120004E0C07397306031DFD
:100A0800062D072D0D2D4E1F0A2D0B2D0D2DF40132
:100A1800F40A7408080022008E10FF30F1007108F3
:100A2800F000200058088A0057080A008531F200B3
:100A380072082000CE0022008E140800200048080A
:100A48000319272D282D2C2DC80122000E16322D12
:100A580022000E1E302D312D322D0E120800730883
:100A6800F1007208F00085315325853122000E10FF
:100A78008E140800700824009100141C442D452D84
:100A8800412D110808004E346F3464346534303415
:100A98000034640080010131890B4E2D0034710847
:0A0AA8002000D8007008D7000800F5
:020000040001F9
:04000E00C239FF13E1
:00000001FF
