:020000040000FA
:04000000803114280F
:100008007E1480310B1D09280A281228053020008B
:1000180095000130A5070030A63D0B117E100900A0
:100028008031162820308400003085003930803136
:10003800CC2080317E10200080312228C83020005A
:10004800DE000030DF0059308600003087000530C0
:10005800F70000301E00F70B2E28803198208031E1
:10006800C330F2000030F3008031B8208031220024
:100078000E125930F7007708F1000530F8007808BB
:10008800F200103080316A20803120005F0826029B
:10009800031D50285E082502031C532854284928AC
:1000A80022000E0E0139F7000130F706F70E0E0890
:1000B8007706EF3977068E0020002508C83EDE0057
:1000C8000030263DDF00492880311428F500220041
:1000D8008E107508F3007308F0007A088A00790812
:1000E8000A008031F4007408F6008D28FF30F30010
:1000F8007308F0007A088A0079080A008031F40051
:10010800710886008701740881000130F3007308C4
:10011800F1070130F202720A031D932894287A2805
:1001280022008E14760808002000A501A601783068
:100138002100990023008C018D0144308E00443049
:1001480021008E003F308D00FF308C002400940188
:10015800223095008330210095000530200095005D
:100168008B160B178B1708007308F1007208F00044
:100178008031D220803122000E108E1408007008C1
:1001880024009100141CC928CA28C6281108080090
:10019800640080010131890BCD2800347108FA0010
:0601A8007008F9000800D8
:020000040001F9
:04000E00C239FF13E1
:00000001FF
