:020000040000FA
:0400000080314728DC
:100008007E1480310B1D09280A2814280530200089
:10001800950001302100BC070030BD3D0B1145287B
:100028000B1C1728182845283230F0000030F10042
:1000380097310C27803197318A2780312000A20020
:100048002208A4000830A2002208FA002408A3000D
:100058000230A335FF3E031D2D282335C23E8B31C8
:100068007723803101302000A200240A3C28A235E1
:10007800890B3B282208A3002308E60027009301E8
:100088000B107E100900803149287030840021301F
:1000980085008030FE000030FF0097313F27803117
:1000A8002000E401E501E601E701E801A030840051
:1000B800003085004030FE000030FF0097313F27B8
:1000C800803120308400013085004430FE0000304B
:1000D800FF0097313F2780317E1020008C31A72CFC
:1000E800200036088039BB003B08C0003635BB000D
:1000F8003B08C600B51F8128822883284614460875
:100108000319872888289728460A031D8C288D28D4
:1001180095280030B6000030B5000030B40000303B
:10012800B300B5179F280030B6000030B500003086
:10013800B4000030B3003A088039BB003B08C00661
:100148003A35BB003B08C100B91FAB28AC28AD2825
:10015800411441080319B128B228C128410A031DD6
:10016800B628B728BF280030BA000030B9000030E0
:10017800B8000030B700B917C9280030BA000030FD
:10018800B9000030B8000030B70041080319CD2885
:10019800CE28D3284608031DD228D328DC280030CF
:1001A800B6000030B5000030B4000030B300CA2AF1
:1001B8003308BB003B08A500390888318D20803101
:1001C80020002608CC002508CB004B08BB00BC014A
:1001D800BD01BE013E08C5003D08C4003C08C3007F
:1001E8003B08C2004C08BB00BC01BD01BE013E0873
:1001F800CA003D08C9003C08C8003B08C7003408CD
:10020800BB003B08A500380888318D2080312000CC
:100218002608CC002508CB004B08BB00BC01BD015B
:10022800BE013B08C2073C08C33D3D08C43D3E082B
:10023800C53D4C08BB00BC01BD01BE013B08C7075A
:100248003C08C83D3D08C93D3E08CA3D3508BB00CD
:100258003B08A500370888318D208031200026080A
:10026800CC002508CB004B08BB00BC01BD01BE017A
:100278003B08C2073C08C33D3D08C43D3E08C53D98
:100288004C08BB00BC01BD01BE013B08C7073C08C8
:10029800C83D3D08C93D3E08CA3D0830C235C30DBA
:1002A800C40DC50D890B52293408BB003B08A500B5
:1002B800370888318D20803120002608CC00250899
:1002C800CB004B08C2074C08C33D0030C43DC53DB8
:1002D8003308BB003B08A500380888318D208031E1
:1002E80020002608CC002508CB004B08C2074C0884
:1002F800C33D0030C43DC53D0830C235C30DC40DF3
:10030800C50D890B81293308BB003B08A5003708B8
:1003180088318D20803120002608CC002508CB00AC
:100328004B08C2074C08C33D0030C43DC53D3408E6
:10033800BB003B08A500390888318D20803120009A
:100348002608CC002508CB004B08C7074C08C83D39
:100358000030C93DCA3D3508BB003B08A500380838
:1003680088318D20803120002608CC002508CB005C
:100378004B08C7074C08C83D0030C93DCA3D350881
:10038800BB003B08A500390888318D20803120004A
:100398002608CC002508CB004B08BB004C08BC0045
:1003A800BD01BE010830BB35BC0DBD0DBE0D890BAE
:1003B800D7293B08C7073C08C83D3D08C93D3E084A
:1003C800CA3D4208BB004308BC004408BD004508BC
:1003D800BE001830BE36BD0CBC0CBB0C890BEE2918
:1003E8003B08C7073C08C83D3D08C93D3E08CA3D13
:1003F8000830C235C30DC40DC50D890BFD2946084B
:100408004107BB00BC01BC0D3B08823ECB00FF305E
:100418003C3DCC00262A0130C735C80DC90DCA0D90
:10042800890B102AC51F192A1A2A1B2A47140130BA
:10043800C235C30DC40DC50D890B1C2AFF30CB076F
:10044800FF30CC3DC91F292A2A2A0F2AC101C51FFE
:100458002E2A2F2A4B2AFF304205BB00FF304305C6
:10046800BC00FF304405BD007F304505BE003E0896
:100478003D043C043B040319422A432A462AC1018D
:10048800C10A4B2A471C492A4A2A4B2A432A4108AF
:1004980003194F2A502A782A0130C7070030C83D6F
:1004A8000030C93D0030CA3D4A1C5B2A5C2A782AC4
:1004B8004708BB004808BC004908BD004A08BE0000
:1004C8000130BF00BE37BD0CBC0CBB0CBF0B662A8D
:1004D8003E08CA003D08C9003C08C8003B08C700E0
:1004E8000130CB070030CC3D4C08803ABB0080304F
:1004F8003B02031D812AFF304B02031C842A852AF4
:100508008F2A7F302000CA008030C9000030C80020
:100518000030C700BE2A20004C08803ABB0080305B
:100528003B02031D992A01304B0203189C2A9D2A7D
:10053800A82A00302000CA000030C9000030C800D6
:100548000030C700C001BE2A20004B08BB003B0892
:10055800C600FF30C705FF30C8057F30C905003029
:10056800CA05461CB82AB92ABA2AC9174636BB0092
:100578003B08CA004008BB003B08CA044A08B6004A
:100588004908B5004808B4004708B300080000341B
:1005980000340034003400340034003400340034B3
:1005A80000340034003401340034013400340134A0
:1005B800003401340034023400340234003402348C
:1005C8000034033400340334003404340034043475
:1005D800003405340034053400340634003406345D
:1005E8000034073400340834003408340034093443
:1005F80000340A3400340B3400340B3400340C3427
:1006080000340D3400340E3400340F340034103408
:1006180000341134003412340034133400341434E8
:1006280000341634003417340034183400341934C4
:1006380000341A3400341C3400341D3400341E34A1
:10064800003420340034213400342334003424347A
:1006580000342634003427340034293400342B3451
:1006680000342C3400342E34003430340034313427
:1006780000343334003435340034373400343934FA
:1006880000343B3400343C3400343E3400344034CD
:10069800003442340034453400344734003449349B
:1006A80000344B3400344D3400344F340034523469
:1006B80000345434003456340034583400345B3435
:1006C80000345D34003460340034623400346534FE
:1006D8000034673400346A3400346C3400346F34C6
:1006E80000347234003474340034773400347A348B
:1006F80000347D3400347F3400348234003485344F
:100708000034883400348B3400348E34003491340F
:10071800003494340034973400349A3400349D34CF
:100728000034A0340034A4340034A7340034AA348C
:100738000034AD340034B1340034B4340034B83447
:100748000034BB340034BE340034C2340034C53401
:100758000034C9340034CC340034D0340034D434B8
:100768000034D7340034DB340034DF340034E3346D
:100778000034E6340034EA340034EE340034F23421
:100788000034F6340034FA340034FE3400340234D1
:100798000134063401340A3401340E34013412347D
:1007A8000134163401341A3401341F34013423342B
:1007B8000134273401342C340134303401343434D6
:1007C8000134393401343D3401344234013446347F
:1007D80001344B3401344F34013454340134593426
:1007E80001345D34013462340134673401346B34CC
:1007F800013470340134753401347A3401347F346F
:10080800013484340134893401348E34013493340E
:100818000134983401349D340134A2340134A734AE
:100828000134AC340134B2340134B7340134BC344B
:100838000134C1340134C7340134CC340134D134E7
:100848000134D7340134DC340134E2340134E73480
:100858000134ED340134F2340134F8340134FE3417
:10086800013403340234093402340F3402341534A9
:1008780002341A34023420340234263402342C343C
:10088800023432340234383402343E3402344434CC
:1008980002344A34023450340234563402345C345C
:1008A800023463340234693402346F3402347534E8
:1008B80002347C34023482340234883402348F3473
:1008C8000234953402349C340234A2340234A934FC
:1008D8000234AF340234B6340234BC340234C33484
:1008E8000234CA340234D0340234D7340234DE3409
:1008F8000234E5340234EC340234F3340234F9348B
:10090800023400340334073403340E34033415340A
:1009180003341C340334243403342B340334323486
:1009280003343934033440340334473403344F3404
:100938000334563403345D340334653403346C347F
:100948000334743403347B340334833403348A34F7
:1009580003349234033499340334A1340334A9346E
:100968000334B0340334B8340334C0340334C834E3
:100978000334CF340334D7340334DF340334E73457
:100988000334EF340334F7340334FF3403342000E2
:100998003A088039BB003B08C4003A35BB003B0825
:1009A800CB00B91FD82CD92CDA2C4B144B080319BF
:1009B800DE2CDF2CEF2C4B0A031DE32CE42CEC2C53
:1009C8000030BA000030B9000030B8000030B7007D
:1009D800B917BA01F72C0030BA000030B90000305E
:1009E800B8000030B70036088039BB003B08C406A1
:1009F8003635BB003B08CC00B51F032D042D052D53
:100A08004C144C080319092D0A2D1A2D4C0A031DE4
:100A18000E2D0F2D172D0030B6000030B500003018
:100A2800B4000030B300B517B601222D0030B6006F
:100A38000030B5000030B4000030B300360835048B
:100A480034043304031D292D2A2D432D0030BA0008
:100A58000030B9000030B8000030B7008030B90469
:100A68007F30BA044408BB003B08BA043A08B60011
:100A78003908B5003808B4003708B3007E2E4B0893
:100A8800031D472D482D512D0030B6000030B5000C
:100A98000030B4000030B3007E2E4B08BB00BC0110
:100AA8003C08BE004C083B02BD00031CBE033D08C9
:100AB8007F3EC50000303E3DC6003A08C3003908F5
:100AC800C2003808C1003708C0000030BA00003042
:100AD800B9000030B8000030B7000030CA0000305C
:100AE800C9000030C8000030C700CC01B92D4C083F
:100AF80003197F2D802D9A2D0130C035C10DC20DEF
:100B0800C30D890B812D0130B735B80DB90DBA0D5C
:100B1800890B882DCA1F912D922D932D37140130E2
:100B2800C735C80DC90DCA0D890B942D3608430267
:100B3800031DA82D35084202031DA82D34084102C3
:100B4800031DA82D33084002031CAB2DAC2DB52D79
:100B58004A173308C0023408C13B3508C23B36087F
:100B6800C33B0130BB003B08CC071A304C02031CC6
:100B7800BE2DBF2D7B2D43084204410440040319B8
:100B8800C62DC72DE02D4714E02D0130B735B80D1F
:100B9800B90DBA0D890BCA2DCA1FD32DD42DD52D49
:100BA80037140130C735C80DC90DCA0D890BD62DAC
:100BB800FF30C507FF30C63DB91FE32DE42DC92D11
:100BC800CC01CA1FE82DE92D052EFF304705BB00D3
:100BD800FF304805BC00FF304905BD007F304A059D
:100BE800BE003E083D043C043B040319FC2DFD2DCA
:100BF800002ECC01CC0A052E371C032E042E052E00
:100C0800FD2D4C080319092E0A2E322E0130B70784
:100C18000030B83D0030B93D0030BA3D3A1C152EC1
:100C2800162E322E3708BB003808BC003908BD0024
:100C38003A08BE000130BF00BE37BD0CBC0CBB0C6F
:100C4800BF0B202E3E08BA003D08B9003C08B8008A
:100C58003B08B7000130C5070030C63D4608803A5A
:100C6800BB0080303B02031D3B2EFF304502031CB6
:100C78003E2E3F2E4C2EFF302000C5000030C6000F
:100C88000030BA000030B9000030B8000030B700BA
:100C980020004608803ABB0080303B02031D562ED8
:100CA800013045020318592E5A2E662E2000C50120
:100CB800C6010030BA000030B9000030B80000307A
:100CC800B700C40120004508BB003B08CB004B1C03
:100CD8006E2E6F2E712EB917752E7F30BB003B0814
:100CE800B9054B36BB003B08BA004408BB003B08BB
:100CF800BA043A2D08002100E800680820005806C8
:100D08000319872E882EDF2F21006808200058023B
:100D180003188F2E902E372F580821006802E40000
:100D2800E501031CE50320005908DA00DB01DC01BA
:100D3800DD015D08A8005C08A7005B08A6005A084A
:100D4800A50001308F315327863120002808B600CE
:100D58002708B5002608B4002508B3002100640858
:100D68002000A500210065082000A600A701A80111
:100D780000308F315327863120002808BA00270811
:100D8800B9002608B8002508B7008431CB2486317D
:100D9800200036082100E300200035082100E20089
:100DA800200034082100E100200033082100E00081
:100DB800E701E70A2A2F67082000DA00DB01DC01D7
:100DC800DD015D08A8005C08A7005B08A6005A08BA
:100DD800A50001308F315327863120002808BA003A
:100DE8002708B9002608B8002508B70021006308BD
:100DF8002000B600210062082000B500210061082B
:100E08002000B400210060082000B3008031742065
:100E1800863120003608D0003508CF003408CE00CF
:100E28003308CD008D31B925863120004D0858078B
:100E3800DE005E082100E60066088C315624863103
:100E480001302000DA005A082100E707200059087D
:100E580021006702031C312F322FDF2E68088C31E6
:100E680056248631DF2F210068082000580221000F
:100E7800E400E501031CE50320005908DA00DB0162
:100E8800DC01DD015D08A8005C08A7005B08A6007E
:100E98005A08A50001308F315327863120002808D1
:100EA800B6002708B5002608B4002508B3002100BD
:100EB80064082000A500210065082000A600A701FD
:100EC800A80100308F315327863120002808BA0046
:100ED8002708B9002608B8002508B7008431CB24B4
:100EE8008631200036082100E30020003508210063
:100EF800E200200034082100E1002000330821002E
:100F0800E000E701E70AD32F67082000DA00DB01D9
:100F1800DC01DD015D08A8005C08A7005B08A600ED
:100F28005A08A50001308F31532786312000280840
:100F3800BA002708B9002608B8002508B70021001C
:100F480063082000B600210062082000B5002100D7
:100F580061082000B400210060082000B30080313F
:100F68007420863120003608D0003508CF003408B8
:100F7800CE003308CD008D31B925863120004D08CB
:100F88005802DE005E082100E60066088C3156240F
:100F9800863101302000DA005A082100E7072000D6
:100FA800590821006702031CDA2FDB2F882F6808F5
:100FB8008C3156248631080020002508A70005300A
:100FC800A735FF3E031DE42F27352C009400200091
:100FD8002608A8002508A700A836A70CA836A70C3D
:100FE80027082C009500080020002608E5002508A1
:040FF800E400080009
:101002002000B4003530B2003208A600A701A70ABA
:1010120002308931B421883101302000B200340A13
:101022001328B235890B12283208B3003308B504ED
:101032003530A9000030AA00AB01AB0A02308A3178
:101042004E22883108002000B4003530B200320848
:10105200A600A701A70A01308931B42188310130E5
:101062002000B200340A3628B235890B35283208FE
:10107200B3003308B5043530A9000030AA00AB0133
:10108200AB0A01308A314E22883108002000AD01BE
:10109200AD0163282D082707A50028080318280A90
:1010A200A6009731672788312000AB002D08290759
:1010B200AC002C08860087012B0881000130AB00B0
:1010C2002B08AD072A082D02031C682869284B2823
:1010D20008002000680803196F2870287B28E8019F
:1010E20022000E1621003A083C07B8003B083D3D9D
:1010F200B9008C28210039083D02031D82283808D6
:101102003C02031C852886288C2822000E1E8A2871
:101112008B288C280E1208002000AD00A901AA011C
:101122002508A700A8012708AB002808AC002D1C41
:101132009B289C28A0282B08A9072C08AA3D01302F
:10114200AB35AC0D890BA1280310AD0C2D08031D86
:10115200AB28AC2898282A08A6002908A500080070
:101162002000B300D230B2003208A600A701A70ABD
:1011720000308931B421883120003308013921003F
:101182005211031D5215D2302000A9000030AA00CE
:10119200AB01AB0A00308A314E2288312000B20006
:1011A20032082100D70008002000B40021005408B2
:1011B20020003406F03934062100D4002000320821
:1011C200B300B30E21005408200033060F39330652
:1011D2002100D400D4302000A9000030AA00AB01C5
:1011E200AB0A04308A314E2288312000B300330822
:1011F2002100D70008002000B6007E303602031816
:10120200032904290C293608B200B3013208B400BC
:101212003308B50010297D30B4000030B500340821
:10122200B20032082100D500D5302000A9000030DC
:10123200AA00AB01AB0A05308A314E228831200068
:10124200B20032082100D70008002000B300D630D7
:10125200B2003208A600A701A70A06308931B421DC
:101262008931200033080139B200B20DB20DB20D3E
:101272002100560820003206F73932062100D60036
:10128200D6302000A9000030AA00AB01AB0A06301C
:101292008A314E2289312000B20032082100D70063
:1012A2000800F800F90122008E1078082038F400B6
:1012B2007408F000200065088A0064080A00893179
:1012C200F9017A297908F400F5017408710786009A
:1012D2007508723D87000108F6007608F0002000CC
:1012E20065088A0064080A0089310130F400740834
:1012F200F90773087902031C7F29802963292200D8
:101302008E1408002000A800A901A90A21002908BA
:10131200803A2000A50021002B08803A20002502F7
:10132200031D962921002A082802031899299A29BF
:10133200B129210028082A022000A600210029083C
:101342002B3B2000A7002708803A803C031DAB29D5
:10135200260828020318AE29AF29B1292000A901C5
:101362002000290808002000AC00AD0122008E10E8
:1013720020002C08A8002808A50065088A00640837
:101382000A0089312000AD01DD29FF30A8002808BC
:10139200A50065088A0064080A0089312000A900B6
:1013A2002D082607AA002A0886008701290881003D
:1013B2000130A8002808AD0727082D02031CE229E6
:1013C200E329C62922008E1408002000B500350842
:1013D2000319EC29EE290130EF290030B20032085E
:1013E200B507043035020318F729F829FB29B301A0
:1013F200B401FF290330B3000030B4003308B20057
:101402003208B5003508B20032082100D300D330CB
:101412002000A9000030AA00AB01AB0A03308A31D8
:101422004E2289312000B20032082100D700080084
:1014320020002508260403191F2A202A492AAA0166
:10144200AA0A2C2A0130A535A60D890B242A0130BF
:10145200A9002908AA07A61F2F2A302A232A26080C
:101462002802031D362A25082702031C392A3A2A94
:101472003E2A2508A7022608A83B0130A636A50C5D
:10148200890B3F2A0130AA02031D482A492A302A21
:101492002808A6002708A50008002000AF00B10117
:1014A20022008E1020002F082038AC002C08A50046
:1014B20065088A0064080A008A312000AD002D0800
:1014C200B000B1017B2A3108AC00AD012C0829071C
:1014D20086002D082A3D87000108AE002E08A500CF
:1014E20065088A0064080A008A3101302000AC00D5
:1014F2002C08B1072B083102031C802A812A642A96
:1015020022008E142000300808002000E61C8A2ADF
:101512008B2A9A2A21004C082000A50025082100C8
:10152200C1004D082000A50025082100C0002000B0
:10153200E610661C9D2A9E2ABF2A07302100420619
:10154200031DA42AA52ABD2A43082000A5002508B8
:101552002100C10044082000A50025082100BF0089
:1015620045082000A50025082100C00046082000EB
:10157200A50025082100BE002000661008002000FA
:10158200B600D630B2003208A600A701A70A06307C
:101592008931B4218A310430200036020318D22A5C
:1015A200D32ADB2A3608B200B3013208B40033086A
:1015B200B500DF2A0330B4000030B5003408B200B1
:1015C200B20D2100560820003206F93932062100F8
:1015D200D600D6302000A9000030AA00AB01AB0A29
:1015E20006308A314E228A312000B20032082100B0
:1015F200D70008002000A701A70A21002A08013EFF
:101602002000A500003021002B3D2000A600210073
:10161200290820002606031D122B2100280820007D
:1016220025060319152B162B362B21002808290411
:10163200031D1C2B1D2B342B2C08FF3E2000A50064
:10164200FF3021002D3D2000A60021002B082000A4
:101652002606031D302B21002A0820002506031927
:10166200332B342B362B2000A7012708080021003A
:10167200BC01BD017830990023008C018D014430FA
:101682008E00443021008E003F308D00FF308C00F0
:1016920040302400940021309500833021009500D1
:1016A2000530200095008B16FF309B0004309C0013
:1016B2000030AF00B0009731C7278B3100302000D7
:1016C200A500A6008731E0278B31C0302C009300A3
:1016D200C0309600A03021009E001D140430270067
:1016E20092008B150B100B178B1708002000A0001F
:1016F20022008E106130FB007B08F000200065089C
:101702008A0064080A008B31FC007C082100D700A3
:101712002000A101A32BFF30FB007B08F00065082D
:101722008A0064080A008B31FC002000210820078F
:10173200FD007D08860087017C0881000130FB00E6
:101742007B08A1077A082102031CA82BA92B8C2B4A
:1017520022008E1421005717D730F1000030F2001A
:10176200F301F30A0730893152218B31080020003E
:10177200AB01203028020318BF2BC02B052C1F30D1
:101782002505A90000302605AA0029082A04031D00
:10179200CB2BCC2B052C8B13260823009200200088
:1017A200250823009100151315159516F62B2B0805
:1017B2002707A90029088600870101082300930052
:1017C200940197311E278B3101302000A90029088E
:1017D200AB0728082B02031CEF2BF12B0130F22B55
:1017E2000030A900290823009107200028082B02B5
:1017F200031CFC2BFD2BD82B2300951297311E279F
:101802008B31230015118B1708002000AE01973190
:1018120027278C31003A031D0F2C102C532C7030CB
:101822002000AB002130AC002100280820002B074B
:1018320086002100290820002C3D87000108AD0008
:101842002D08AE00210029082B06031D2A2C28088A
:101852002A06031D2D2C2E2C372CFF30A800FF301A
:10186200A900FF30AA00FF30AB00532C2D08200046
:10187200A60021002C082000A50021002808013E16
:101882002000A70000302100293D2000A8008A3155
:1018920019228C31200026082100A90020002508E9
:1018A2002100A80020002E0808002000AF008A3185
:1018B200FB228C31003A031D5F2C602CA62C2100E8
:1018C200280A031D6A2C290A0319682C6A2C013084
:1018D2006B2C00302000AB00AC012B082100A807C4
:1018E20020002C082100A93D2D082000A60021007F
:1018F2002C082000A50021002A08013E2000A70094
:10190200003021002B3D2000A8008A3119228C31A1
:10191200200026082100AB00200025082100AA0093
:101922000230A83E8600870170302000AB002130D3
:10193200AC00403F2B07AD00413F2C3DAE002D08CF
:1019420086002E0887002F08810008000A30210037
:10195200E9000030EA006430EB000030EC00E830CF
:10196200ED000330EE008B3138238C318D315B2555
:101972008C318E312E268C31973106278C3188316D
:101982006A208C318A3186228C3121006A083D021C
:10199200031DCD2C69083C02031CD02CD12CDA2C5F
:1019A2003C080A3EE90000303D3DEA008C31FE244D
:1019B2008C3121006C083D02031DE12C6B083C02B6
:1019C200031CE42CE52CEB2C3C08643EEB000030BD
:1019D2003D3DEC006E083D02031DF12C6D083C02FA
:1019E200031CF42CF52CC02C3C08E83EED0003301F
:1019F2003D3DEE00C02C803147289631FD268C31CA
:101A02002000DF005F08E300973103278C312000BC
:101A1200DF005F08E100973100278C312000DF00F2
:101A22005F08E2006708DF005F08D8006108E00095
:101A32006008D900630886317F268C312000630854
:101A4200DF005F08E7000130893183218C31003AE1
:101A520003192C2D2D2D322D200067088C31562490
:101A62008C318C3106248C312000DF00E001DF351F
:101A7200E00DCB305F0784008230603D8500003F7F
:101A8200AF00013FB0009731C7278C3120006208B8
:101A9200DF00E001DF35E00DCB305F0784008230EC
:101AA200603D8500003FA500013FA6008731E02789
:101AB2008C31080080302000A5001F30A60097312D
:101AC20067278D312E3086000030870020302000BD
:101AD200AC0000301E00AC0B6B2D8030A5001F3017
:101AE200A600973167278D31A53A0319792D7A2DF2
:101AF200B82DA5302000AC002C08AE004E30AC0052
:101B02002C08AF006F30AC002C08B0006430AC0081
:101B12002C08B1006530AC002C08B2003030AC00AB
:101B22002C08B300BA30AC002C08B4005E30AC0014
:101B32002C08B500BA30AC002C08B6001130AC004D
:101B42002C08B700B801B80A6430AC002C08B90000
:101B52008030A5001F30A6002E30AC002C08A70054
:101B62000C30AD002D08A8008B31B8238D31080050
:101B7200031020004F0D500DD1005108D700570817
:101B8200031DC42DC52DCE2D0030D0000030CF0056
:101B92000030CE000030CD002D2E4D08D1004E0871
:101BA200D2004F08D3005008D4001F30D436D30CD3
:101BB200D20CD10C890BD72D5108D5005508D6006F
:101BC200CF17FF30CD05FF30CE05FF30CF050030F7
:101BD200D0059630D702D71FEF2DF02D082E5708CB
:101BE200803A973E0318F62DF72DF82DC52D0130BA
:101BF200D036CF0CCE0CCD0C890BF92D0130D10093
:101C02005108D707031D062E072EF82D1D2E203052
:101C12005702031C0D2E0E2E182EC52D0130CD3568
:101C2200CE0DCF0DD00D890B102E0130D7025708E3
:101C3200031D1C2E1D2E0F2E56080319212E222E97
:101C42002D2ECD09CE09CF09D009CD0A0319CE0A0E
:101C52000319CF0A0319D00A080045308600003064
:101C6200870005302000C30000301E00C30B362E53
:101C72004A308600003087000530C30000301E0065
:101C8200C30B402E8130A7001F30A8004530C3008F
:101C92004308A9000530C4004408AA00883147203F
:101CA2008E3186302000A7001F30A8004A30C300C2
:101CB2004308A9000530C4004408AA00883147201F
:101CC2008E3159302000A7001730A80097313327F2
:101CD2008E3101308831B1208E3105308931E621D3
:101CE2008E310030893126218E3103308A31C02273
:101CF2008E3164308831FC208E314A302000C3009E
:101D02004308B6000830C4004408B700B801B80A56
:101D1200B901B90A00308E31BC268E31453020001F
:101D2200C3004308B6000830C4004408B700B80135
:101D3200B901B90A01308E31BC268E314A30973151
:101D42009D278E3104302000C3004308B2000A30C0
:101D52008831D5208E319731DF278E313230200005
:101D6200C30043082100BF00FF302000C300430826
:101D72002100C10008002000C20021005308023ED9
:101D82002000BA003A08C0003708BA000630BB008B
:101D92003B08A50042089731B1278E31403E8600AC
:101DA2000130870020003A088100C101F62E410867
:101DB2003607BA003A08860087010108BB000630E0
:101DC200BC003C08A50042089731B1278E31413E44
:101DD20020004107BD003D088600013087003B0816
:101DE20081000130BA003A08C10740084102031CD1
:101DF200FB2EFC2ED82E39080319002F012F052F98
:101E02004208883101208E312000380803190A2F38
:101E12000B2F0F2F4208883124208E3102302000F0
:101E220042020318152F162F1E2F4008BA00BB01BD
:101E32003A08BE003B08BF00222F0130BE0000302E
:101E4200BF000630BA003A08A50042089731B12710
:101E52008E31413E2000A9000130AA003E08BB009D
:101E62003B08AB0042080A3E8A314E228E310630D0
:101E72002000BA003A08A50042089731B1278E31F6
:101E8200403E2000A9000130AA00AB01AB0A420883
:101E9200113E8A314E228E312000BB003B082100C8
:101EA200D70008002000AD002D080319592F5A2F22
:101EB2006E2FA81F5D2F5E2F6E2F2509AF002609FA
:101EC200B0002709B1002809B200AF0A0319B00A0D
:101ED2000319B10A0319B20A762F2808B20027089B
:101EE200B1002608B0002508AF0028082704260400
:101EF2002504031D7D2F7E2F872F0030A800003080
:101F0200A7000030A6000030A500FF2F9630A900E0
:101F12002908AE00972F0130A9002908AE07013029
:101F2200B236B10CB00CAF0C890B912FFE303205DA
:101F3200031D9C2F9D2F8C2FB12F0130A900290842
:101F4200AE070130AF070030B03D0030B13D003088
:101F5200B23D0130B236B10CB00CAF0C890BAB2FD5
:101F6200FF303205031DB62FB72F9E2FC12F013030
:101F7200AE020130AF35B00DB10DB20D890BBB2FE2
:101F8200B11BC42FC52FCB2F02302E020318CA2F2C
:101F9200CB2FB82F2E18CE2FCF2FD72FFF30AF0534
:101FA200FF30B0057F30B105FF30B2050310AE0C33
:101FB2002E08A900AA01AB01AC011830A935AA0D5F
:101FC200AB0DAC0D890BDF2F2908AF042A08B00432
:101FD2002B08B1042C08B2042D080319F12FF22F9B
:101FE200F72FA81FF52FF62FF72FB2173208A800E8
:0E1FF2003108A7003008A6002F08A50008003F
:102DFA0021004108080021004008080021003F087E
:102E0A00080022000E1297314B2797310800200044
:102E1A00E801E80A71082100BB007008BA0008003E
:102E2A00700824009100141C1B2F1C2F182F110846
:102E3A000800553023009600AA3096009514000029
:102E4A00000008002100280A031D312F290A03194E
:102E5A002F2F312F0130322F003008002000280890
:102E6A00A6002708A5008731F827973122000E10FF
:102E7A008E1408006400800101310130FE02003026
:102E8A00FF3B7F087E04031D402F00348030210061
:102E9A00AC000030AD00FF30A800FF30A900FF30C1
:102EAA00AA00FF30AB0008007E1C5D2F9731152F5A
:102EBA002000250824009100141C642F652F612F1F
:102ECA001108080023001513200026082300920089
:102EDA00200025082300910015140000000023009B
:102EEA001308080022008E10FF30F1007108F0006C
:102EFA00200065088A0064080A009731F200720807
:102F0A002100D70022008E140800FF30F300730856
:102F1A00F4009731772797312100571F952F962F65
:102F2A009B2F570C0739F3007308F4007408080044
:102F3A002000B4003408A9000030AA000530B2000D
:102F4A003208AB0010308A314E2297312000B3008C
:102F5A0033082100D70008002000A800A701281C78
:102F6A00B72FB82FBC2F2508A6002608A7070310DD
:102F7A00A50D0310A80C2808031DC42FC52FB42FB4
:102F8A002708080020002F08B1000530B135FF3EA0
:102F9A00031DCB2F31352C00910020003008B200E0
:102FAA002F08B100B236B10CB236B10C31082C0080
:102FBA0092000800D2302000B2003208A600A70111
:102FCA00A70A00308931B421973121005214D21452
:102FDA00D2302000A9000030AA00AB01AB0A0030B1
:102FEA008A314E2297312000B20032082100D700E0
:062FFA0022000E14080085
:020000040001F9
:04000E00C239FF13E1
:00000001FF
