:020000040000FA
:0400000080313F28E4
:100008007E1480310B1D09280A2814280530200089
:10001800950001302100A4070030A53D0B113D28B3
:100028000B1C172818283D286430F0000030F10018
:1000380089314D218031003089319E218031003A4B
:1000480003192728282830280830FB007B08F700E8
:10005800D9308D31332580317030F1000030F20015
:10006800F301F30A07308A31F12280312700930126
:100078000B107E1009008031412870308400213037
:1000880085008030FE000030FF0089317621803104
:100098002000E701E801E901EA01EB01EC01ED01CB
:1000A800A0308400003085004130FE000030FF00A1
:1000B8008931762180317E1020008D31F62D200087
:1000C80033088039B8003808BD003335B80038081F
:1000D800C300B21F702871287228431443080319FB
:1000E800762877288628430A031D7B287C288428BD
:1000F8000030B3000030B2000030B1000030B00072
:10010800B2178E280030B3000030B2000030B100C2
:100118000030B00037088039B8003808BD063735D8
:10012800B8003808C200B61F9A289B289C28421499
:1001380042080319A028A128B028420A031DA528AF
:10014800A628AE280030B7000030B6000030B50051
:100158000030B400B617B8280030B7000030B60039
:100168000030B5000030B40042080319BC28BD288F
:10017800C2284308031DC128C228CB280030B30079
:100188000030B2000030B1000030B000B92A3008A9
:10019800B8003808A20036088A318222803120004F
:1001A8002308C9002208C8004808B800B901BA01E4
:1001B800BB013B08C1003A08C0003908BF00380835
:1001C800BE004908B800B901BA01BB013B08C70025
:1001D8003A08C6003908C5003808C4003108B80014
:1001E8003808A20035088A3182228031200023088D
:1001F800C9002208C8004808B800B901BA01BB0103
:100208003808BE073908BF3D3A08C03D3B08C13D24
:100218004908B800B901BA01BB013808C407390850
:10022800C53D3A08C63D3B08C73D3208B800380806
:10023800A20034088A318222803120002308C900B4
:100248002208C8004808B800B901BA01BB0138083B
:10025800BE073908BF3D3A08C03D3B08C13D4908C3
:10026800B800B901BA01BB013808C4073908C53D4F
:100278003A08C63D3B08C73D0830BE35BF0DC00D26
:10028800C10D890B41293108B8003808A20034088B
:100298008A318222803120002308C9002208C80040
:1002A8004808BE074908BF3D0030C03DC13D300881
:1002B800B8003808A20035088A318222803120002F
:1002C8002308C9002208C8004808BE074908BF3DDE
:1002D8000030C03DC13D0830BE35BF0DC00DC10D59
:1002E800890B70293008B8003808A20034088A3110
:1002F8008222803120002308C9002208C80048084B
:10030800BE074908BF3D0030C03DC13D3108B800B7
:100318003808A20036088A3182228031200023085A
:10032800C9002208C8004808C4074908C53D00306C
:10033800C63DC73D3208B8003808A20035088A31E2
:100348008222803120002308C9002208C8004808FA
:10035800C4074908C53D0030C63DC73D3208B8004E
:100368003808A20036088A3182228031200023080A
:10037800C9002208C8004808B8004908B900BA01ED
:10038800BB010830B835B90DBA0DBB0D890BC629AC
:100398003808C4073908C53D3A08C63D3B08C73D7B
:1003A8003E08B8003F08B9004008BA004108BB0041
:1003B8001830BB36BA0CB90CB80C890BDD293808D3
:1003C800C4073908C53D3A08C63D3B08C73D083053
:1003D800BE35BF0DC00DC10D890BEC29430842077E
:1003E800B800B901B90D3808823EC800FF30393D60
:1003F800C900152A0130C435C50DC60DC70D890BB6
:10040800FF29C11F082A092A0A2A44140130BE35C7
:10041800BF0DC00DC10D890B0B2AFF30C807FF3077
:10042800C93DC61F182A192AFE29C201C11F1D2A43
:100438001E2A3A2AFF303E05B800FF303F05B900B2
:10044800FF304005BA007F304105BB003B083A0445
:10045800390438040319312A322A352AC201C20A5A
:100468003A2A441C382A392A3A2A322A42080319D5
:100478003E2A3F2A672A0130C4070030C53D0030B4
:10048800C63D0030C73D471C4A2A4B2A672A440804
:10049800B8004508B9004608BA004708BB00013053
:1004A800BC00BB37BA0CB90CB80CBC0B552A3B08BE
:1004B800C7003A08C6003908C5003808C40001302A
:1004C800C8070030C93D4908803AB8008030380272
:1004D800031D702AFF304802031C732A742A7E2ADF
:1004E8007F302000C7008030C6000030C5000030D3
:1004F800C400AD2A20004908803AB800803038028C
:10050800031D882A0130480203188B2A8C2A972A4F
:1005180000302000C7000030C6000030C5000030A1
:10052800C400BD01AD2A20004808B8003808C3003F
:10053800FF30C405FF30C5057F30C6050030C7054C
:10054800431CA72AA82AA92AC6174336B800380880
:10055800C7003D08B8003808C7044708B300460874
:10056800B2004508B1004408B00008000034003467
:1005780000340034003400340034003400340034D3
:1005880000340034013400340134003401340034C0
:1005980001340034023400340234003402340034AC
:1005A8000334003403340034043400340434003495
:1005B800053400340534003406340034063400347D
:1005C8000734003408340034083400340934003463
:1005D8000A3400340B3400340B3400340C34003447
:1005E8000D3400340E3400340F3400341034003429
:1005F8001134003412340034133400341434003409
:1006080016340034173400341834003419340034E4
:100618001A3400341C3400341D3400341E340034C1
:10062800203400342134003423340034243400349A
:100638002634003427340034293400342B34003471
:100648002C3400342E340034303400343134003447
:10065800333400343534003437340034393400341A
:100668003B3400343C3400343E34003440340034ED
:1006780042340034453400344734003449340034BB
:100688004B3400344D3400344F3400345234003489
:100698005434003456340034583400345B34003455
:1006A8005D3400346034003462340034653400341E
:1006B800673400346A3400346C3400346F340034E6
:1006C8007234003474340034773400347A340034AB
:1006D8007D3400347F34003482340034853400346F
:1006E800883400348B3400348E3400349134003430
:1006F80094340034973400349A3400349D340034F0
:10070800A0340034A4340034A7340034AA340034AC
:10071800AD340034B1340034B4340034B834003467
:10072800BB340034BE340034C2340034C534003421
:10073800C9340034CC340034D0340034D4340034D8
:10074800D7340034DB340034DF340034E33400348D
:10075800E6340034EA340034EE340034F234003441
:10076800F6340034FA340034FE34003402340134F0
:10077800063401340A3401340E340134123401349D
:10078800163401341A3401341F340134233401344B
:10079800273401342C3401343034013434340134F6
:1007A800393401343D34013442340134463401349F
:1007B8004B3401344F340134543401345934013446
:1007C8005D34013462340134673401346B340134EC
:1007D80070340134753401347A3401347F3401348F
:1007E80084340134893401348E340134933401342F
:1007F800983401349D340134A2340134A7340134CF
:10080800AC340134B2340134B7340134BC3401346B
:10081800C1340134C7340134CC340134D134013407
:10082800D7340134DC340134E2340134E7340134A0
:10083800ED340134F2340134F8340134FE34013437
:1008480003340234093402340F34023415340234C8
:100858001A34023420340234263402342C3402345C
:1008680032340234383402343E34023444340234EC
:100878004A34023450340234563402345C3402347C
:1008880063340234693402346F3402347534023408
:100898007C34023482340234883402348F34023493
:1008A800953402349C340234A2340234A93402341C
:1008B800AF340234B6340234BC340234C3340234A4
:1008C800CA340234D0340234D7340234DE34023429
:1008D800E5340234EC340234F3340234F9340234AB
:1008E80000340334073403340E340334153403342A
:1008F8001C340334243403342B34033432340334A7
:100908003934033440340334473403344F34033424
:10091800563403345D340334653403346C3403349F
:10092800743403347B340334833403348A34033417
:100938009234033499340334A1340334A93403348E
:10094800B0340334B8340334C0340334C834033403
:10095800CF340334D7340334DF340334E734033477
:10096800EF340334F7340334FF34033420003708FA
:100978008039B8003808C1003735B8003808C800D1
:10098800B61FC72CC82CC92C481448080319CD2CED
:10099800CE2CDE2C480A031DD22CD32CDB2C0030A5
:1009A800B7000030B6000030B5000030B400B6170C
:1009B800B701E62C0030B7000030B6000030B500B3
:1009C8000030B40033088039B8003808C106333520
:1009D800B8003808C900B21FF22CF32CF42C4914C3
:1009E80049080319F82CF92C092D490A031DFD2C77
:1009F800FE2C062D0030B3000030B2000030B100EC
:100A08000030B000B217B301112D0030B300003030
:100A1800B2000030B1000030B000330832043104B5
:100A28003004031D182D192D322D0030B700003069
:100A3800B6000030B5000030B4008030B6047F3016
:100A4800B7044108B8003808B7043708B3003608B7
:100A5800B2003508B1003408B0006D2E4808031DF7
:100A6800362D372D402D0030B3000030B200003055
:100A7800B1000030B0006D2E4808B800B90139083F
:100A8800BB0049083802BA00031CBB033A087F3E82
:100A9800C20000303B3DC3003708C0003608BF0025
:100AA8003508BE003408BD000030B7000030B6007D
:100AB8000030B5000030B4000030C7000030C60078
:100AC8000030C5000030C400C901A82D4908031929
:100AD8006E2D6F2D892D0130BD35BE0DBF0DC00D9A
:100AE800890B702D0130B435B50DB60DB70D890BD6
:100AF800772DC71F802D812D822D34140130C435E8
:100B0800C50DC60DC70D890B832D33084002031D83
:100B1800972D32083F02031D972D31083E02031D11
:100B2800972D30083D02031C9A2D9B2DA42D4717A5
:100B38003008BD023108BE3B3208BF3B3308C03B1A
:100B48000130B8003808C9071A304902031CAD2D16
:100B5800AE2D6A2D40083F043E043D040319B52D0F
:100B6800B62DCF2D4414CF2D0130B435B50DB60DAB
:100B7800B70D890BB92DC71FC22DC32DC42D341431
:100B88000130C435C50DC60DC70D890BC52DFF3005
:100B9800C207FF30C33DB61FD22DD32DB82DC901D2
:100BA800C71FD72DD82DF42DFF304405B800FF30CE
:100BB8004505B900FF304605BA007F304705BB0040
:100BC8003B083A04390438040319EB2DEC2DEF2DBA
:100BD800C901C90AF42D341CF22DF32DF42DEC2D86
:100BE80049080319F82DF92D212E0130B4070030DA
:100BF800B53D0030B63D0030B73D371C042E052EFC
:100C0800212E3408B8003508B9003608BA0037086C
:100C1800BB000130BC00BB37BA0CB90CB80CBC0B1C
:100C28000F2E3B08B7003A08B6003908B500380857
:100C3800B4000130C2070030C33D4308803AB80011
:100C480080303802031D2A2EFF304202031C2D2E4D
:100C58002E2E3B2EFF302000C2000030C300003093
:100C6800B7000030B6000030B5000030B4002000F6
:100C78004308803AB80080303802031D452E013001
:100C880042020318482E492E552E2000C201C301E6
:100C98000030B7000030B6000030B5000030B400B6
:100CA800C10120004208B8003808C800481C5D2E61
:100CB8005E2E602EB617642E7F30B8003808B60551
:100CC8004836B8003808B7004108B8003808B704F3
:100CD800292D08002000E400640855060319752E24
:100CE800762E952F6408550203187B2E7C2E092F2B
:100CF80055086402E000E101031CE1035608D7002F
:100D0800D801D901DA015A08A5005908A4005808E1
:100D1800A3005708A20001308F31532786312000E5
:100D28002508B3002408B2002308B1002208B00047
:100D38006008A2006108A300A401A50100308F315A
:100D48005327863120002508B7002408B600230859
:100D5800B5002208B4008431BA2486312000330853
:100D6800DF003208DE003108DD003008DC00E30176
:100D7800E30AFE2E6308D700D801D901DA015A0820
:100D8800A5005908A4005808A3005708A20001307C
:100D98008F315327863120002508B7002408B60074
:100DA8002308B5002208B4005F08B3005E08B2004B
:100DB8005D08B1005C08B0008031632086312000F6
:100DC8003308CD003208CC003108CB003008CA0007
:100DD8008E314426863120004A085507DB005B081F
:100DE800E20062088D31B425863101302000D70039
:100DF8005708E30756086302031C032F042FBE2E6F
:100E080064088D31B4258631952F64085502E000B9
:100E1800E101031CE1035608D700D801D901DA0122
:100E28005A08A5005908A4005808A3005708A200AA
:100E380001308F315327863120002508B30024085C
:100E4800B2002308B1002208B0006008A2006108BF
:100E5800A300A401A50100308F315327863120005B
:100E68002508B7002408B6002308B5002208B400F6
:100E78008431BA24863120003308DF003208DE00CE
:100E88003108DD003008DC00E301E30A8B2F63083A
:100E9800D700D801D901DA015A08A5005908A400D9
:100EA8005808A3005708A20001308F315327863114
:100EB80020002508B7002408B6002308B50022083A
:100EC800B4005F08B3005E08B2005D08B1005C08BA
:100ED800B00080316320863120003308CD0032080D
:100EE800CC003108CB003008CA008E314426863148
:100EF80020004A085502DB005B08E20062088D31D9
:100F0800B425863101302000D7005708E30756087A
:100F18006302031C902F912F4B2F64088D31B42549
:100F28008631080022000E1200302000AC00AD000F
:100F38008931C921873100302000A200A3008931FE
:100F4800E121873189319021873182302000A40046
:100F58000930A50089316A21873101308A31A622FA
:100F6800873105308C315824873100308B319923F3
:100F7800873103308C31F824873164308B31432337
:100F8800873100302000B1009030B2000830C00036
:100F98004008B300B401B40AB501B50A00308E3177
:100FA800B926873104302000C0004008AD000A305F
:100FB8008A31CA22873170302000A6000030A7008D
:100FC800A801A80A07308B31F32387318931F92129
:100FD8008731080022008E10FF30F1007108F00000
:100FE8007D088A007C080A008731F2007208210017
:080FF800D00022008E14080055
:10128E0020002308FD002208FC0008002100A60112
:10129E00A60A7108A3007008A200080070082400B6
:1012AE009100141C5B295C295829110808002000A4
:1012BE00670A031D6829680A03196629682901301F
:1012CE0069290030080020002508A3002408A20088
:1012DE0089314721893122000E108E1408006400D6
:1012EE00800101310130FE020030FF3B7F087E0499
:1012FE00031D772900347E1C86298931552920004B
:10130E00220824009100141C8D298E298A29110887
:10131E00080080302000EB000030EC00FF30E700CA
:10132E00FF30E800FF30E900FF30EA000800F3006C
:10133E00F4018731EE2789312100500C07397306ED
:10134E00031DAA29AB29B129501FAE29AF29B129F6
:10135E00F401F40A740808002000A500A401251C5D
:10136E00B929BA29BE292208A3002308A40703100D
:10137E00A20D0310A50C2508031DC629C729B629E1
:10138E002408080020002C08AE000530AE35FF3EC4
:10139E00031DCD292E352C00910020002D08AF0005
:1013AE002C08AE00AF36AE0CAF36AE0C2E082C00AD
:1013BE009200080020002208A4000530A435FF3E4C
:1013CE00031DE52924352C00940020002308A500D8
:1013DE002208A400A536A40CA536A40C24082C00C3
:1013EE0095000800CB302000AD002D08A300A4010D
:1013FE00A40A00308C312524893121004B14CB14E2
:10140E00CB302000A6000030A700A801A80A0030AB
:10141E008B31F32389312000AD002D082100D0003F
:10142E0022000E1408002100260803191F2A202A64
:10143E002B2AA60122000E16210022082407A00046
:10144E002308253DA1003B2A21082502031D312A30
:10145E0020082402031C342A352A3B2A22000E1EA1
:10146E00392A3A2A3B2A0E1208002000AF003030EB
:10147E00AD002D08A300A401A40A02308C3125244E
:10148E008A3101302000AD002F0A4E2AAD35890B6E
:10149E004D2A2D08AE002E08B0043030A6000030C4
:1014AE00A700A801A80A02308B31F3238A31080065
:1014BE002000AF003030AD002D08A300A401A40A17
:1014CE0001308C3125248A3101302000AD002F0AE5
:1014DE00712AAD35890B702A2D08AE002E08B00486
:1014EE003030A6000030A700A801A80A01308B31C9
:1014FE00F3238A3108002000AA00A601A7012208C2
:10150E00A400A5012408A8002508A9002A1C902AD9
:10151E00912A952A2808A6072908A73D0130A83543
:10152E00A90D890B962A0310AA0C2A08031DA02ABE
:10153E00A12A8D2A2708A3002608A2000800200051
:10154E00AE00CB30AD002D08A300A401A40A0030DC
:10155E008C3125248A3120002E08013921004B11AF
:10156E00031D4B15CB302000A6000030A700A801AC
:10157E00A80A00308B31F3238A312000AD002D08EC
:10158E002100D00008002000AF0021004D082000EF
:10159E002F06F0392F062100CD0020002D08AE00B9
:1015AE00AE0E21004D0820002E060F392E0621000A
:1015BE00CD00CD302000A6000030A700A801A80A5B
:1015CE0004308B31F3238A312000AE002E08210027
:1015DE00D0000800F60022008E1076082038F400A5
:1015EE007408F0007D088A007C080A008A31102BEE
:1015FE0071088600720887000108F4007408F00074
:10160E007D088A007C080A008B310130F10700301A
:10161E00F23D0130F302730A031D162B172BFF2A1E
:10162E0022008E1408002000A500A601A60A680854
:10163E00803AA2006A08803A2202031D282B69080C
:10164E00670203182B2B2C2B402B200067086902F6
:10165E00A30068086A3BA4002408803A803C031D5E
:10166E003A2B2308250203183D2B3E2B402B20003E
:10167E00A6012000260808002000B1007E303102AD
:10168E0003184A2B4B2B532B3108AD00AE012D08FE
:10169E00AF002E08B000572B7D30AF000030B000E9
:1016AE002F08AD002D082100CE00CE302000A60060
:1016BE000030A700A801A80A05308B31F3238B3127
:1016CE002000AD002D082100D00008002000A4014C
:1016DE00A40A6908013EA20000306A3DA300680812
:1016EE002306031D7C2B6708220603197F2B802BF4
:1016FE00972B67086804031D852B862B962B6B088A
:10170E00FF3EA200FF306C3DA3006A082306031DB6
:10171E00922B690822060319952B962B972BA40161
:10172E00240808002000AE00CF30AD002D08A30025
:10173E00A401A40A06308C3125248B3120002E08FA
:10174E000139AD00AD0DAD0DAD0D21004F082000DE
:10175E002D06F7392D062100CF00CF302000A60030
:10176E000030A700A801A80A06308B31F3238B3175
:10177E002000AD002D082100D00008002100A4019A
:10178E00A5017830990023008C018D0144308E0024
:10179E00443021008E003F308D00FF308C004030F1
:1017AE0024009400213095008330210095000530EF
:1017BE00200095008B16FF309B0004309C00C0303B
:1017CE002C009300C03096000430270092008B1539
:1017DE000B100B178B1708002000AB0022008E1089
:1017EE0020002B082038A9002908A2007D088A00B5
:1017FE007C080A008C312000AA002A08AC00192CA3
:10180E0026088600270887000108A9002908A200DB
:10181E007D088A007C080A008C3101302000A60762
:10182E000030A73D0130A802280A031D1F2C202CD2
:10183E00072C22008E1420002C0808002000A70080
:10184E0022008E1020002708A5002508A2007D0882
:10185E008A007C080A008C312000A6002608A80009
:10186E004C2CFF30A5002508A2007D088A007C08BC
:10187E000A008C312000A600230886008701260866
:10188E0081000130A5002508A3070130A402240A17
:10189E00031D522C532C382C22008E1420002808A5
:1018AE0008002000B000300803195E2C602C0130B7
:1018BE00612C0030AD002D08B00704303002031843
:1018CE00692C6A2C6D2CAE01AF01712C0330AE0069
:1018DE000030AF002E08AD002D08B0003008AD006E
:1018EE002D082100CC00CC302000A6000030A7002F
:1018FE00A801A80A03308B31F3238C312000AD00F0
:10190E002D082100D000080020002208230403190E
:10191E00912C922CBB2CA701A70A9E2C0130A2352C
:10192E00A30D890B962C0130A6002608A707A31F2E
:10193E00A12CA22C952C23082502031DA82C2208CD
:10194E002402031CAB2CAC2CB02C2208A4022308BE
:10195E00A53B0130A336A20C890BB12C0130A70296
:10196E00031DBA2CBB2CA22C2508A3002408A20010
:10197E00080020006D08E5006508D5003230E6004D
:10198E006608D6002100590886316E268C3121005A
:10199E0059082000E5006508ED0001308B311A234F
:1019AE008C31003A0319DC2CDD2CE22C20006D0862
:1019BE008D31B4258C318D3173258C312000E500AD
:1019CE00E601E535E60DBA30650784008230663DE6
:1019DE008500003FAC00013FAD008931C9218C313B
:1019EE0008002000B100CF30AD002D08A300A401E7
:1019FE00A40A06308C3125248C31043020003102AB
:101A0E0003180A2D0B2D132D3108AD00AE012D0834
:101A1E00AF002E08B000172D0330AF000030B0001D
:101A2E002F08AD00AD0D21004F0820002D06F9390D
:101A3E002D062100CF00CF302000A6000030A700D9
:101A4E00A801A80A06308B31F3238C312000AD009B
:101A5E002D082100D00008002000A00022008E10CA
:101A6E006130F8007808F0007D088A007C080A00D2
:101A7E008D31F90079082100D0002000A1015E2DE2
:101A8E00FF30F8007808F0007D088A007C080A0014
:101A9E008D31F900200021082007FA007A0886000F
:101AAE008701790881000130F8007808A1077708CE
:101ABE002102031C632D642D472D22008E1421005C
:101ACE005017D030F1000030F200F301F30A073066
:101ADE008A31F1228D3108002000AB0189315E215F
:101AEE008D31003A031D7C2D7D2DB12D70302000DF
:101AFE00A8002130A9006708280786006808293D3C
:101B0E0087000108AA002A08AB0068086A06031DB0
:101B1E00922D67086906031D952D962D9F2DFF307A
:101B2E00E700FF30E800FF30E900FF30EA00B12D9A
:101B3E006C08A3006B08A2006708013EA4000030E9
:101B4E00683DA5008C318B248D3120002308E800E0
:101B5E002208E70020002B0808002000AC008B3183
:101B6E006D238D31003A031DBD2DBE2DF52D2000A8
:101B7E00670A031DC82D680A0319C62DC82D01302A
:101B8E00C92D0030A800A9012808E7072908E83D5B
:101B9E006C08A3006B08A2006908013EA400003087
:101BAE006A3DA5008C318B248D3120002308EA007C
:101BBE002208E9000230673E860087017030A800D7
:101BCE002130A900403F2807AA00413F293DAB0024
:101BDE002A0886002B0887002C08810008000A308E
:101BEE002100E1000030E2006430E3000030E40048
:101BFE00E830E5000330E6008B31C5238D318731A7
:101C0E0096278D318A311A228D31210062082502E4
:101C1E00031D132E61082402031C162E172E202ED0
:101C2E0024080A3EE1000030253DE2008C31C0243C
:101C3E008D31210064082502031D272E630824021E
:101C4E00031C2A2E2B2E312E2408643EE300003076
:101C5E00253DE40066082502031D372E6508240283
:101C6E00031C3A2E3B2E092E2408E83EE5000330D5
:101C7E00253DE600092E80313F28031020004C0D33
:101C8E004D0DCE004E08D4005408031D4F2E502E7D
:101C9E00592E0030CD000030CC000030CB0000308B
:101CAE00CA00B82E4A08CE004B08CF004C08D00010
:101CBE004D08D1001F30D136D00CCF0CCE0C890B75
:101CCE00622E4E08D2005208D300CC17FF30CA0540
:101CDE00FF30CB05FF30CC050030CD059630D40259
:101CEE00D41F7A2E7B2E932E5408803A973E0318DB
:101CFE00812E822E832E502E0130CD36CC0CCB0C65
:101D0E00CA0C890B842E0130CE004E08D407031D59
:101D1E00912E922E832EA82E20305402031C982E24
:101D2E00992EA32E502E0130CA35CB0DCC0DCD0DD4
:101D3E00890B9B2E0130D4025408031DA72EA82E0A
:101D4E009A2E53080319AC2EAD2EB82ECA09CB0904
:101D5E00CC09CD09CA0A0319CB0A0319CC0A0319F7
:101D6E00CD0A08002000BF0021004C08023E2000D2
:101D7E00B6003608BD003308B6000630B700370887
:101D8E00A2003F088931B3218E31A73E860087011C
:101D9E00200036088100BE01F62E3208B700310849
:101DAE00B6003E083607840037080318370A850048
:101DBE000008B8000630B9003908A2003F08893182
:101DCE00B3218E31A83E20003E07BA003A088600A5
:101DDE008701380881000130B6003608BE073D087D
:101DEE003E02031CFB2EFC2ED42E35080319002FA9
:101DFE00012F052F3F088A313C228E3120003408F6
:101E0E0003190A2F0B2F0F2F3F088A315F228E31B5
:101E1E00023020003F020318152F162F1E2F3D08EB
:101E2E00B600B7013608BB003708BC00222F0130C0
:101E3E00BB000030BC000630B6003608A2003F08DA
:101E4E008931B3218E31A83E2000A6000030A700B4
:101E5E003B08B7003708A8003F080A3E8B31F32332
:101E6E008E3106302000B6003608A2003F088931B8
:101E7E00B3218E31A73E2000A6000030A700A80196
:101E8E00A80A3F08113E8B31F3238E312000B70094
:101E9E0037082100D00008002000AA002A080319E4
:101EAE00592F5A2F6E2FA51F5D2F5E2F6E2F2209D1
:101EBE00AC002309AD002409AE002509AF00AC0A21
:101ECE000319AD0A0319AE0A0319AF0A762F2508B6
:101EDE00AF002408AE002308AD002208AC00250890
:101EEE00240423042204031D7D2F7E2F872F003010
:101EFE00A5000030A4000030A3000030A200FF2F88
:101F0E009630A6002608AB00972F0130A6002608B3
:101F1E00AB070130AF36AE0CAD0CAC0C890B912F6C
:101F2E00FE302F05031D9C2F9D2F8C2FB12F0130BE
:101F3E00A6002608AB070130AC070030AD3D0030DF
:101F4E00AE3D0030AF3D0130AF36AE0CAD0CAC0C3B
:101F5E00890BAB2FFF302F05031DB62FB72F9E2FEA
:101F6E00C12F0130AB020130AC35AD0DAE0DAF0D52
:101F7E00890BBB2FAE1BC42FC52FCB2F02302B02CC
:101F8E000318CA2FCB2FB82F2B18CE2FCF2FD72F0A
:101F9E00FF30AC05FF30AD057F30AE05FF30AF052D
:101FAE000310AB0C2B08A600A701A801A90118303D
:101FBE00A635A70DA80DA90D890BDF2F2608AC0499
:101FCE002708AD042808AE042908AF042A0803190F
:101FDE00F12FF22FF72FA51FF52FF62FF72FAF1793
:101FEE002F08A5002E08A4002D08A3002C08A2007F
:0E1FFE0008004E346F346434653430340034DF
:020000040001F9
:04000E00C239FF13E1
:00000001FF
