:020000040000FA
:04000000803114280F
:100008007E1480310B1D09280A281228053020008B
:1000180095000130E7070030E83D0B117E1009001C
:1000280080311628F0308400203085000030FE0032
:100038000130FF008931912180315D30840000302A
:1000480085000E30FE000030FF008931912180319B
:10005800A0308400003085003A30FE000030FF00F8
:100068008931912180317E1020008E31112E20009F
:1000780023088039A8002808AD002335A8002808DF
:10008800B300A21F482849284A2833143308031903
:100098004E284F285E28330A031D532854285C280D
:1000A8000030A3000030A2000030A1000030A00002
:1000B800A21766280030A3000030A2000030A1007B
:1000C8000030A00027088039A8002808AD06273589
:1000D800A8002808B200A61F7228732874283214B2
:1000E80032080319782879288828320A031D7D28C0
:1000F8007E2886280030A7000030A6000030A50022
:100108000030A400A61790280030A7000030A600F1
:100118000030A5000030A40032080319942895285F
:100128009A283308031D99289A28A3280030A30089
:100138000030A2000030A1000030A000912A200861
:10014800A8002808F00026088A31BD2280317108ED
:100158002000B9007008B8003808A800A901AA0151
:10016800AB012B08B1002A08B0002908AF00280805
:10017800AE003908A800A901AA01AB012B08B700F5
:100188002A08B6002908B5002808B4002108A800E4
:100198002808F00025088A31BD2280317108200026
:1001A800B9007008B8003808A800A901AA01AB0175
:1001B8002808AE072908AF3D2A08B03D2B08B13DF5
:1001C8003908A800A901AA01AB012808B407290821
:1001D800B53D2A08B63D2B08B73D2208A8002808D7
:1001E800F00024088A31BD22803171082000B9004E
:1001F8007008B8003808A800A901AA01AB012808AE
:10020800AE072908AF3D2A08B03D2B08B13D390893
:10021800A800A901AA01AB012808B4072908B53D1F
:100228002A08B63D2B08B73D0830AE35AF0DB00DE6
:10023800B10D890B19292108A8002808F000240805
:100248008A31BD22803171082000B9007008B800D9
:100258003808AE073908AF3D0030B03DB13D200841
:10026800A8002808F00025088A31BD2280317108CD
:100278002000B9007008B8003808AE073908AF3D4B
:100288000030B03DB13D0830AE35AF0DB00DB10D09
:10029800890B48292008A8002808F00024088A317A
:1002A800BD22803171082000B9007008B8003808F4
:1002B800AE073908AF3D0030B03DB13D2108A80078
:1002C8002808F00026088A31BD22803171082000F4
:1002D800B9007008B8003808B4073908B53D0030CF
:1002E800B63DB73D2208A8002808F00025088A3145
:1002F800BD22803171082000B9007008B8003808A4
:10030800B4073908B53D0030B63DB73D2208A8000E
:100318002808F00026088A31BD22803171082000A3
:10032800B9007008B8003808A8003908A900AA015F
:10033800AB010830A835A90DAA0DAB0D890B9E2974
:100348002808B4072908B53D2A08B63D2B08B73D4B
:100358002E08A8002F08A9003008AA003108AB0011
:100368001830AB36AA0CA90CA80C890BB52928089B
:10037800B4072908B53D2A08B63D2B08B73D083013
:10038800AE35AF0DB00DB10D890BC4293308320756
:10039800A800A901A90D2808823EB800FF30293D10
:1003A800B900ED290130B435B50DB60DB70D890B7F
:1003B800D729B11FE029E129E22934140130AE35EB
:1003C800AF0DB00DB10D890BE329FF30B807FF3031
:1003D800B93DB61FF029F129D629B201B11FF52977
:1003E800F629122AFF302E05A800FF302F05A90094
:1003F800FF303005AA007F303105AB002B082A04F6
:10040800290428040319092A0A2A0D2AB201B20A62
:10041800122A341C102A112A122A0A2A320803190D
:10042800162A172A3F2A0130B4070030B53D00309C
:10043800B63D0030B73D371C222A232A3F2A34080C
:10044800A8003508A9003608AA003708AB00013013
:10045800AC00AB37AA0CA90CA80CAC0B2D2A2B08A6
:10046800B7002A08B6002908B5002808B4000130EA
:10047800B8070030B93D3908803AA8008030280212
:10048800031D482AFF303802031C4B2A4C2A562ADF
:100498007F302000B7008030B6000030B500003053
:1004A800B400852A20003908803AA8008030280244
:1004B800031D602A013038020318632A642A6F2A50
:1004C80000302000B7000030B6000030B500003022
:1004D800B400AD01852A20003808A8002808B30018
:1004E800FF30B405FF30B5057F30B6050030B705DD
:1004F800331C7F2A802A812AB6173336A800280899
:10050800B7002D08A8002808B7043708A300360844
:10051800A2003508A1003408A00008000034003407
:100528000034003400340034003400340034003423
:100538000034003401340034013400340134003410
:1005480001340034023400340234003402340034FC
:1005580003340034033400340434003404340034E5
:1005680005340034053400340634003406340034CD
:1005780007340034083400340834003409340034B3
:100588000A3400340B3400340B3400340C34003497
:100598000D3400340E3400340F3400341034003479
:1005A8001134003412340034133400341434003459
:1005B8001634003417340034183400341934003435
:1005C8001A3400341C3400341D3400341E34003412
:1005D80020340034213400342334003424340034EB
:1005E8002634003427340034293400342B340034C2
:1005F8002C3400342E340034303400343134003498
:10060800333400343534003437340034393400346A
:100618003B3400343C3400343E340034403400343D
:10062800423400344534003447340034493400340B
:100638004B3400344D3400344F34003452340034D9
:100648005434003456340034583400345B340034A5
:100658005D3400346034003462340034653400346E
:10066800673400346A3400346C3400346F34003436
:100678007234003474340034773400347A340034FB
:100688007D3400347F3400348234003485340034BF
:10069800883400348B3400348E3400349134003480
:1006A80094340034973400349A3400349D34003440
:1006B800A0340034A4340034A7340034AA340034FD
:1006C800AD340034B1340034B4340034B8340034B8
:1006D800BB340034BE340034C2340034C534003472
:1006E800C9340034CC340034D0340034D434003429
:1006F800D7340034DB340034DF340034E3340034DE
:10070800E6340034EA340034EE340034F234003491
:10071800F6340034FA340034FE3400340234013440
:10072800063401340A3401340E34013412340134ED
:10073800163401341A3401341F340134233401349B
:10074800273401342C340134303401343434013446
:10075800393401343D3401344234013446340134EF
:100768004B3401344F340134543401345934013496
:100778005D34013462340134673401346B3401343C
:1007880070340134753401347A3401347F340134DF
:1007980084340134893401348E340134933401347F
:1007A800983401349D340134A2340134A73401341F
:1007B800AC340134B2340134B7340134BC340134BC
:1007C800C1340134C7340134CC340134D134013458
:1007D800D7340134DC340134E2340134E7340134F1
:1007E800ED340134F2340134F8340134FE34013488
:1007F80003340234093402340F3402341534023419
:100808001A34023420340234263402342C340234AC
:1008180032340234383402343E340234443402343C
:100828004A34023450340234563402345C340234CC
:1008380063340234693402346F3402347534023458
:100848007C34023482340234883402348F340234E3
:10085800953402349C340234A2340234A93402346C
:10086800AF340234B6340234BC340234C3340234F4
:10087800CA340234D0340234D7340234DE34023479
:10088800E5340234EC340234F3340234F9340234FB
:1008980000340334073403340E340334153403347A
:1008A8001C340334243403342B34033432340334F7
:1008B8003934033440340334473403344F34033475
:1008C800563403345D340334653403346C340334F0
:1008D800743403347B340334833403348A34033468
:1008E8009234033499340334A1340334A9340334DF
:1008F800B0340334B8340334C0340334C834033454
:10090800CF340334D7340334DF340334E7340334C7
:10091800EF340334F7340334FF340334200027085A
:100928008039A8002808B1002735A8002808B80091
:10093800A61F9F2CA02CA12C381438080319A52C0D
:10094800A62CB62C380A031DAA2CAB2CB32C0030CD
:10095800A7000030A6000030A5000030A400A617AC
:10096800A701BE2C0030A7000030A6000030A5006B
:100978000030A40023088039A8002808B1062335D0
:10098800A8002808B900A21FCA2CCB2CCC2C3914DB
:1009980039080319D02CD12CE12C390A031DD52C88
:1009A800D62CDE2C0030A3000030A2000030A100BD
:1009B8000030A000A217A301E92C0030A3000030EA
:1009C800A2000030A1000030A00023082204210466
:1009D8002004031DF02CF12C0A2D0030A700003054
:1009E800A6000030A5000030A4008030A6047F30A7
:1009F800A7043108A8002808A7042708A300260888
:100A0800A2002508A1002408A000452E3808031DCF
:100A18000E2D0F2D182D0030A3000030A20000303D
:100A2800A1000030A000452E3808A800A901290817
:100A3800AB0039082802AA00031CAB032A087F3E32
:100A4800B20000302B3DB3002708B0002608AF00E5
:100A58002508AE002408AD000030A7000030A6002D
:100A68000030A5000030A4000030B7000030B60008
:100A78000030B5000030B400B901802D39080319E1
:100A8800462D472D612D0130AD35AE0DAF0DB00DA2
:100A9800890B482D0130A435A50DA60DA70D890B8E
:100AA8004F2DB71F582D592D5A2D24140130B43508
:100AB800B50DB60DB70D890B5B2D23083002031D4C
:100AC8006F2D22082F02031D6F2D21082E02031DF2
:100AD8006F2D20082D02031C722D732D7C2D3717C6
:100AE8002008AD022108AE3B2208AF3B2308B03BEB
:100AF8000130A8002808B9071A303902031C852DCF
:100B0800862D422D30082F042E042D0403198D2D17
:100B18008E2DA72D3414A72D0130A435A50DA60DB3
:100B2800A70D890B912DB71F9A2D9B2D9C2D241451
:100B38000130B435B50DB60DB70D890B9D2DFF30BD
:100B4800B207FF30B33DA61FAA2DAB2D902DB901DA
:100B5800B71FAF2DB02DCC2DFF303405A800FF30C6
:100B68003505A900FF303605AA007F303705AB00F0
:100B78002B082A04290428040319C32DC42DC72DC2
:100B8800B901B90ACC2D241CCA2DCB2DCC2DC42DCE
:100B980039080319D02DD12DF92D0130A4070030C3
:100BA800A53D0030A63D0030A73D271CDC2DDD2DDE
:100BB800F92D2408A8002508A9002608AA00270856
:100BC800AB000130AC00AB37AA0CA90CA80CAC0BDD
:100BD800E72D2B08A7002A08A6002908A500280841
:100BE800A4000130B2070030B33D3308803AA800B2
:100BF80080302802031D022EFF303202031C052E0E
:100C0800062E132EFF302000B2000030B300003053
:100C1800A7000030A6000030A5000030A400200086
:100C28003308803AA80080302802031D1D2E0130A9
:100C380032020318202E212E2D2E2000B201B301DE
:100C48000030A7000030A6000030A5000030A40046
:100C5800B10120003208A8002808B800381C352E39
:100C6800362E382EA6173C2E7F30A8002808A60559
:100C78003836A8002808A7003108A8002808A704C3
:100C8800012D08002000D4005408450603194D2EF4
:100C98004E2E6D2F540845020318532E542EE12E64
:100CA80045085402D000D101031CD1034608C700EF
:100CB800C801C901CA014A08F3004908F2004808F6
:100CC800F1004708F00001308F315427863173084E
:100CD8002000A3007208A2007108A1007008A000FB
:100CE8005008F0005108F100F201F30100308F3193
:100CF8005427863173082000A7007208A6007108DF
:100D0800A5007008A40084319224863120002308AD
:100D1800CF002208CE002108CD002008CC00D30146
:100D2800D30AD62E5308C700C801C901CA014A0808
:100D3800F3004908F2004808F1004708F0000130C4
:100D48008F315427863173082000A7007208A60047
:100D58007108A5007008A4004F08A3004E08A2005F
:100D68004D08A1004C08A00080313B2086312000AE
:100D78002308BD002208BC002108BB002008BA00D7
:100D880087316E27863120003A084507CB004B088B
:100D9800D20052088D314125863101302000C7002C
:100DA8004708D30746085302031CDB2EDC2E962E79
:100DB80054088D31412586316D2F54084502D000E5
:100DC800D101031CD1034608C700C801C901CA01E3
:100DD8004A08F3004908F2004808F1004708F00003
:100DE80001308F315427863173082000A300720820
:100DF800A2007108A1007008A0005008F000510876
:100E0800F100F201F30100308F3154278631730865
:100E18002000A7007208A6007108A5007008A400A9
:100E280084319224863120002308CF002208CE0086
:100E38002108CD002008CC00D301D30A632F530822
:100E4800C700C801C901CA014A08F3004908F200ED
:100E58004808F1004708F00001308F3154278631E7
:100E680073082000A7007208A6007108A500700882
:100E7800A4004F08A3004E08A2004D08A1004C088A
:100E8800A00080313B20863120002308BD002208C5
:100E9800BC002108BB002008BA0087316E278631C4
:100EA80020003A084502CB004B08D20052088D3189
:100EB8004125863101302000C7004708D30746087E
:100EC8005302031C682F692F232F54088D314125A5
:100ED80086310800031020003C0D3D0DBE003E0881
:100EE800C4004408031D792F7A2F832F0030BD00DA
:100EF8000030BC000030BB000030BA00E22F3A08D6
:100F0800BE003B08BF003C08C0003D08C1001F30C0
:100F1800C136C00CBF0CBE0C890B8C2F3E08C2001A
:100F28004208C300BC17FF30BA05FF30BB05FF30CD
:100F3800BC050030BD059630C402C41FA42FA52FE0
:100F4800BD2F4408803A973E0318AB2FAC2FAD2F26
:100F58007A2F0130BD36BC0CBB0CBA0C890BAE2FF6
:100F68000130BE003E08C407031DBB2FBC2FAD2FA8
:100F7800D22F20304402031CC22FC32FCD2F7A2F2B
:100F88000130BA35BB0DBC0DBD0D890BC52F013025
:100F9800C4024408031DD12FD22FC42F43080319BC
:100FA800D62FD72FE22FBA09BB09BC09BD09BA0A47
:100FB8000319BB0A0319BC0A0319BD0A0800700803
:100FC800F2000530F235FF3E031DE62F72352C0086
:100FD80094007108F3007008F200F336F20CF3364F
:100FE800F20C7208950008002000EA01EA0A71086C
:080FF800E6007008E5000800A6
:1012D60071082000EC007008EB000800700824007C
:1012E6009100141C772978297429110808007308BD
:1012F600F1007208F00089316B21893122000E104D
:101306008E14080020005D0A031D8F295E0A03194A
:101316008D298F2901309029003008006400800152
:1013260001310130FE020030FF3B7F087E04031DC1
:1013360092290034FF302000E1000030E200FF3047
:10134600DD00FF30DE00FF30DF00FF30E000080088
:1013560022008E10FF30F1007108F00020006C08AA
:101366008A006B080A008931F20072082100C90060
:1013760022008E140800F300F4018931AB21893173
:101386002100490C07397306031DCA29CB29D12927
:10139600491FCE29CF29D129F401F40A740808007F
:1013A6007A08FC000530FC35FF3E031DD6297C3546
:1013B6002C0091007B08FD007A08FC00FD36FC0C31
:1013C600FD36FC0C7C0892000800F300F201731C49
:1013D600ED29EE29F2297008F1007108F2070310D1
:1013E600F00D0310F30C7308031DFA29FB29EA29F3
:1013F60072080800FD00210046087D06F0397D06CA
:10140600C6007A08FB00FB0E46087B060F397B06F2
:10141600C600C630FB007B08F400F501F50A04306F
:101426008B31D1238931FC007C082100C9000800DA
:10143600C430FA007A08F100F201F20A00308B316A
:10144600FF238A3121004414C414C430FA007A08F8
:10145600F400F501F50A00308B31D1238A31FB0007
:101466007B082100C90022000E140800FC00C430CD
:10147600FA007A08F100F201F20A00308B31FF23FC
:101486008A317C08013921004411031D4415C430FA
:10149600FA007A08F400F501F50A00308B31D12301
:1014A6008A31FB007B082100C9000800FC007D3062
:1014B600FA007A08F100F201F20A02308B31FF23BA
:1014C6008A310130FA007C0A692AFA35890B682AC2
:1014D6007A08FB007B08FD047D30FA007A08F400E8
:1014E600F501F50A02308B31D1238A310800FC0060
:1014F6007D30FA007A08F100F201F20A01308B31F0
:10150600FF238A310130FA007C0A8A2AFA35890BD0
:10151600892A7A08FB007B08FD047D30FA007A08E8
:10152600F400F501F50A01308B31D1238A31080028
:1015360020006A080319A02AA12AAC2AEA0122007F
:101546000E16200065086707E3006608683DE4009C
:10155600BC2A64086802031DB22A63086702031CDA
:10156600B52AB62ABC2A22000E1EBA2ABB2ABC2AD3
:101576000E120800F800F401F5017008F200F301FC
:101586007208F6007308F700781CCA2ACB2ACF2AFD
:101596007608F4077708F53D0130F635F70D890B27
:1015A600D02A0310F80C7808031DDA2ADB2AC72A8A
:1015B6007508F1007408F0000800FC00C430FA0059
:1015C6007A08F100F201F20A00308B31FF238A31EA
:1015D6007C08F039FA007A082100C4047C080F3828
:1015E600FA007A08C405C430FA007A08F400F50156
:1015F600F50A00308B31D1238A31FB007B082100AC
:10160600C9000800FC00C830FA007A08F100F201AF
:10161600F20A06308B31FF238B317C080139FA0040
:10162600FA0DFA0DFA0D210048087A06F7397A06FE
:10163600C800C830FA007A08F400F501F50A063049
:101646008B31D1238B31FB007B082100C9000800B8
:10165600F300F401F40A20005E08803AF000600806
:10166600803A7002031D392B5F085D0203183C2B7C
:101676003D2B502B20005D085F02F1005E08603BA9
:10168600F2007208803A803C031D4B2B71087302EE
:1016960003184E2B4F2B502BF40174080800200022
:1016A600A2007E3022020318592B5A2B622B2208E5
:1016B600FA00FB017A08A0007B08A100662B7D30AA
:1016C600A0000030A1002008FA007A082100C70017
:1016D600C730FA007A08F400F501F50A05308B31B7
:1016E600D1238B31FB007B082100C90008002000B4
:1016F600E701E80178302100990023008C018D0173
:1017060044308E00443021008E003F308D00FF3083
:101716008C00403024009400223095008330210054
:101726009500053020009500FF309B0004309C009A
:10173600C0302C009300C03096008B160B120B178E
:101746008B170800F201F20A20005F08013EF00044
:101756000030603DF1005E087106031DB42B5D0884
:1017660070060319B72BB82BCF2B5D085E04031D3B
:10177600BD2BBE2BCE2B6108FF3EF000FF30623D35
:10178600F10060087106031DCA2B5F087006031975
:10179600CD2BCE2BCF2BF20172080800F8002200C9
:1017A6008E1078082038F6007608F00020006C08C5
:1017B6008A006B080A008B31F7007708F900F42BD2
:1017C6007408860087010108F6007608F0002000FC
:1017D6006C088A006B080A008B310130F600760827
:1017E600F4070130F502750A031DFA2BFB2BE32BD8
:1017F60022008E1479080800F50022008E10750864
:10180600F3007308F00020006C088A006B080A00D9
:101816008C31F4007408F600242CFF30F3007308B2
:10182600F00020006C088A006B080A008C31F40076
:10183600710886008701740881000130F30073087F
:10184600F1070130F202720A031D2A2C2B2C102CF0
:1018560022008E14760808002000A2002208031930
:10186600352C372C0130382C0030FA007A08A207C4
:10187600043022020318402C412C442CA001A10163
:10188600482C0330A0000030A1002008FA007A0896
:10189600A2002208FA007A082100C500C530FA0025
:1018A6007A08F400F501F50A03308B31D1238C3127
:1018B600FB007B082100C9000800700871040319A9
:1018C600652C662C8F2CF501F50A722C0130F0354B
:1018D600F10D890B6A2C0130F4007408F507F11F2D
:1018E600752C762C692C71087302031D7C2C7008EC
:1018F6007202031C7F2C802C842C7008F202710863
:10190600F33B0130F136F00C890B852C0130F502E2
:10191600031D8E2C8F2C762C7308F1007208F000B4
:1019260008007B30F7007708F100F201F20A173061
:101936008B31FF238C31F8007808FA00B12CFB1CA0
:10194600A52CA62CCA2CE230F7007708F000200060
:101956006C088A006B080A008C31CA2C7A08F700DA
:101966000430F736890BB42C7708F800F9017908AA
:10197600003A0319BF2CCA2C7808013A0319CA2C5D
:10198600033A0319CA2C063A0319A22CCA2C0800DA
:101996002000A200C830FA007A08F100F201F20A2B
:1019A60006308B31FF238C310430200022020318CD
:1019B600DD2CDE2CE62C2208FA00FB017A08A000BA
:1019C6007B08A100EA2C0330A0000030A10020080B
:1019D600FA00FA0D210048087A06F9397A06C80095
:1019E600C830FA007A08F400F501F50A06308B31A2
:1019F600D1238C31FB007B082100C9000800F901C6
:101A0600893185218D31003A031D0A2D0B2D3F2D7D
:101A1600F030F6002030F70020005D0876078600DB
:101A26005E08773D87000108F8007808F9005E082F
:101A36006006031D202D5D085F06031D232D242D42
:101A46002D2DFF30DD00FF30DE00FF30DF00FF30E0
:101A5600E0003F2D6208F1006108F0005D08013EDC
:101A6600F20000305E3DF3008C3160248D31710848
:101A76002000DE007008DD0079080800FA008B31CE
:101A8600A5238D31003A031D492D4A2D812D2000B5
:101A96005D0A031D542D5E0A0319522D542D013083
:101AA600552D0030F600F7017608DD077708DE3D94
:101AB6006208F1006108F0005F08013EF2000030A4
:101AC600603DF3008C3160248D3171082000E00008
:101AD6007008DF0002305D3E86008701F030F600B8
:101AE6002030F700403F7607F800413F773DF90088
:101AF60078088600790887007A08810008002000A7
:101B0600A00022008E106130FB007B08F000200050
:101B16006C088A006B080A008D31FC007C082100E5
:101B2600C9002000A101AE2DFF30FB007B08F000AC
:101B36006C088A006B080A008D31FC002000210821
:101B46002007FD007D08860087017C0881000130A2
:101B5600FB007B08A1077A082102031CB32DB42DD4
:101B6600972D22008E1421004917C930FB007B08EF
:101B7600F400F501F50A07308B31D1238D310800C9
:101B860022000E120030FA00FB008931D3218D317C
:101B96000030F000F1008731E3278D3189319D2136
:101BA6008D317130F2000930F30089317A218D319F
:101BB60001308A3139228D3105308C312F248D3117
:101BC60000308B3105238D3103308C31CB248D31A0
:101BD60064308B3152238D3100302000A0009030CC
:101BE600A1000830AF002F08A200A301A30AA40198
:101BF600A40A00308E31BA268D3104302000AF00A1
:101C06002F08FA000A308931FD218D3140308A31A2
:101C1600E0228D318A311B228D3108000A302000E6
:101C2600D7000030D8006430D9000030DA00E83040
:101C3600DB000330DC008B317A238E318D31C325F6
:101C46008E318A319B228E31200058086802031D8E
:101C56002E2E57086702031C312E322E3B2E6708A4
:101C66000A3ED7000030683DD8008E315F268E319F
:101C760020005A086802031D422E59086702031CF9
:101C8600452E462E4C2E6708643ED9000030683D2E
:101C9600DA005C086802031D522E5B086702031C0B
:101CA600552E562E242E6708E83EDB000330683D8D
:101CB600DC00242E8031142800308931BE218E317B
:101CC600003A0319672E682E932E6430F000003018
:101CD600F1008731F8278E3108302000D5005508ED
:101CE600FA00D2308D3182258E3121005208200033
:101CF600690603197F2E802E932E6908D500550894
:101D0600C5003230D6005608C6002100520886317A
:101D160046268E31210052082000D5005508E900DC
:101D26008C3194248E3101308B312B238E31003A45
:101D360003199E2E9F2EA42E200069088D31412561
:101D46008E318D3102258E312000D500D601D53554
:101D5600D60D9230550784008230563D8500003FEF
:101D6600FA00013FFB008931D3218E3108002000A3
:101D7600AE0021004508023E2000A5002508AC0063
:101D86002208A5000630A6002608F0002E08893194
:101D9600E8218E31A03E86008701200025088100BB
:101DA600AD01F72E2108A6002008A5002D0825075D
:101DB600840026080318260A85000008A7000630B6
:101DC600A8002808F0002E088931E8218E31A13EAE
:101DD60020002D07A9002908860087012708810011
:101DE6000130A5002508AD072C082D02031CFC2E8A
:101DF600FD2ED52E24080319012F022F062F2E089B
:101E06008A3159228E312000230803190B2F0C2FFB
:101E1600102F2E088A317A228E31023020002E02AF
:101E26000318162F172F1F2F2C08A500A60125080B
:101E3600AA002608AB00232F0130AA000030AB0011
:101E46000630A5002508F0002E088931E8218E31DC
:101E5600A13E2000A6002608F4002A08A7002708AD
:101E6600F5002E080A3E8B31D1238E310630200034
:101E7600A5002508F0002E088931E8218E31A03E04
:101E86002000A6002608F400F501F50A2E08113EEA
:101E96008B31D1238E312000A70027082100C900ED
:101EA6000800F80078080319592F5A2F6E2FF31FD0
:101EB6005D2F5E2F6E2F7009FA007109FB00720903
:101EC600FC007309FD00FA0A0319FB0A0319FC0A50
:101ED6000319FD0A762F7308FD007208FC007108CD
:101EE600FB007008FA007308720471047004031D85
:101EF6007D2F7E2F872F0030F3000030F200003058
:101F0600F1000030F000FF2F9630F4007408F9005D
:101F1600972F0130F4007408F9070130FD36FC0CE8
:101F2600FB0CFA0C890B912FFE307D05031D9C2FAF
:101F36009D2F8C2FB12F0130F4007408F907013062
:101F4600FA070030FB3D0030FC3D0030FD3D01301E
:101F5600FD36FC0CFB0CFA0C890BAB2FFF307D0514
:101F6600031DB62FB72F9E2FC12F0130F902013066
:101F7600FA35FB0DFC0DFD0D890BBB2FFC1BC42F89
:101F8600C52FCB2F023079020318CA2FCB2FB82FBB
:101F96007918CE2FCF2FD72FFF30FA05FF30FB054C
:101FA6007F30FC05FF30FD050310F90C7908F400BD
:101FB600F501F601F7011830F435F50DF60DF70DBC
:101FC600890BDF2F7408FA047508FB047608FC04F5
:101FD6007708FD0478080319F12FF22FF72FF31F66
:101FE600F52FF62FF72FFD177D08F3007C08F2007A
:101FF6007B08F1007A08F00008004E346F34643430
:06200600653430340034A3
:020000040001F9
:04000E00C239FF13E1
:00000001FF
